{"contracts/vaults/Yield4GoodVault.sol":{"Yield4GoodVault":{"abi":[{"inputs":[{"internalType":"contract IERC20","name":"_asset","type":"address"},{"internalType":"contract IYieldStrategy","name":"_strategy","type":"address"},{"internalType":"address","name":"_donationRouter","type":"address"},{"internalType":"address","name":"_beneficiary","type":"address"},{"internalType":"string","name":"_name","type":"string"},{"internalType":"string","name":"_symbol","type":"string"}],"stateMutability":"nonpayable","type":"constructor"},{"inputs":[{"internalType":"address","name":"spender","type":"address"},{"internalType":"uint256","name":"allowance","type":"uint256"},{"internalType":"uint256","name":"needed","type":"uint256"}],"name":"ERC20InsufficientAllowance","type":"error"},{"inputs":[{"internalType":"address","name":"sender","type":"address"},{"internalType":"uint256","name":"balance","type":"uint256"},{"internalType":"uint256","name":"needed","type":"uint256"}],"name":"ERC20InsufficientBalance","type":"error"},{"inputs":[{"internalType":"address","name":"approver","type":"address"}],"name":"ERC20InvalidApprover","type":"error"},{"inputs":[{"internalType":"address","name":"receiver","type":"address"}],"name":"ERC20InvalidReceiver","type":"error"},{"inputs":[{"internalType":"address","name":"sender","type":"address"}],"name":"ERC20InvalidSender","type":"error"},{"inputs":[{"internalType":"address","name":"spender","type":"address"}],"name":"ERC20InvalidSpender","type":"error"},{"inputs":[{"internalType":"address","name":"receiver","type":"address"},{"internalType":"uint256","name":"assets","type":"uint256"},{"internalType":"uint256","name":"max","type":"uint256"}],"name":"ERC4626ExceededMaxDeposit","type":"error"},{"inputs":[{"internalType":"address","name":"receiver","type":"address"},{"internalType":"uint256","name":"shares","type":"uint256"},{"internalType":"uint256","name":"max","type":"uint256"}],"name":"ERC4626ExceededMaxMint","type":"error"},{"inputs":[{"internalType":"address","name":"owner","type":"address"},{"internalType":"uint256","name":"shares","type":"uint256"},{"internalType":"uint256","name":"max","type":"uint256"}],"name":"ERC4626ExceededMaxRedeem","type":"error"},{"inputs":[{"internalType":"address","name":"owner","type":"address"},{"internalType":"uint256","name":"assets","type":"uint256"},{"internalType":"uint256","name":"max","type":"uint256"}],"name":"ERC4626ExceededMaxWithdraw","type":"error"},{"inputs":[{"internalType":"address","name":"owner","type":"address"}],"name":"OwnableInvalidOwner","type":"error"},{"inputs":[{"internalType":"address","name":"account","type":"address"}],"name":"OwnableUnauthorizedAccount","type":"error"},{"inputs":[],"name":"ReentrancyGuardReentrantCall","type":"error"},{"inputs":[{"internalType":"address","name":"token","type":"address"}],"name":"SafeERC20FailedOperation","type":"error"},{"anonymous":false,"inputs":[{"indexed":true,"internalType":"address","name":"owner","type":"address"},{"indexed":true,"internalType":"address","name":"spender","type":"address"},{"indexed":false,"internalType":"uint256","name":"value","type":"uint256"}],"name":"Approval","type":"event"},{"anonymous":false,"inputs":[{"indexed":true,"internalType":"address","name":"newBeneficiary","type":"address"}],"name":"BeneficiaryChanged","type":"event"},{"anonymous":false,"inputs":[{"indexed":true,"internalType":"address","name":"sender","type":"address"},{"indexed":true,"internalType":"address","name":"owner","type":"address"},{"indexed":false,"internalType":"uint256","name":"assets","type":"uint256"},{"indexed":false,"internalType":"uint256","name":"shares","type":"uint256"}],"name":"Deposit","type":"event"},{"anonymous":false,"inputs":[{"indexed":true,"internalType":"address","name":"newRouter","type":"address"}],"name":"DonationRouterChanged","type":"event"},{"anonymous":false,"inputs":[{"indexed":false,"internalType":"uint256","name":"amount","type":"uint256"}],"name":"EmergencyDivest","type":"event"},{"anonymous":false,"inputs":[{"indexed":false,"internalType":"uint256","name":"yieldAmount","type":"uint256"},{"indexed":true,"internalType":"address","name":"beneficiary","type":"address"}],"name":"Harvest","type":"event"},{"anonymous":false,"inputs":[{"indexed":true,"internalType":"address","name":"previousOwner","type":"address"},{"indexed":true,"internalType":"address","name":"newOwner","type":"address"}],"name":"OwnershipTransferred","type":"event"},{"anonymous":false,"inputs":[{"indexed":false,"internalType":"bool","name":"status","type":"bool"}],"name":"Paused","type":"event"},{"anonymous":false,"inputs":[{"indexed":true,"internalType":"address","name":"newStrategy","type":"address"}],"name":"StrategyChanged","type":"event"},{"anonymous":false,"inputs":[{"indexed":true,"internalType":"address","name":"from","type":"address"},{"indexed":true,"internalType":"address","name":"to","type":"address"},{"indexed":false,"internalType":"uint256","name":"value","type":"uint256"}],"name":"Transfer","type":"event"},{"anonymous":false,"inputs":[{"indexed":true,"internalType":"address","name":"sender","type":"address"},{"indexed":true,"internalType":"address","name":"receiver","type":"address"},{"indexed":true,"internalType":"address","name":"owner","type":"address"},{"indexed":false,"internalType":"uint256","name":"assets","type":"uint256"},{"indexed":false,"internalType":"uint256","name":"shares","type":"uint256"}],"name":"Withdraw","type":"event"},{"inputs":[{"internalType":"address","name":"owner","type":"address"},{"internalType":"address","name":"spender","type":"address"}],"name":"allowance","outputs":[{"internalType":"uint256","name":"","type":"uint256"}],"stateMutability":"view","type":"function"},{"inputs":[{"internalType":"address","name":"spender","type":"address"},{"internalType":"uint256","name":"value","type":"uint256"}],"name":"approve","outputs":[{"internalType":"bool","name":"","type":"bool"}],"stateMutability":"nonpayable","type":"function"},{"inputs":[],"name":"asset","outputs":[{"internalType":"address","name":"","type":"address"}],"stateMutability":"view","type":"function"},{"inputs":[{"internalType":"address","name":"account","type":"address"}],"name":"balanceOf","outputs":[{"internalType":"uint256","name":"","type":"uint256"}],"stateMutability":"view","type":"function"},{"inputs":[],"name":"beneficiary","outputs":[{"internalType":"address","name":"","type":"address"}],"stateMutability":"view","type":"function"},{"inputs":[{"internalType":"uint256","name":"shares","type":"uint256"}],"name":"convertToAssets","outputs":[{"internalType":"uint256","name":"","type":"uint256"}],"stateMutability":"view","type":"function"},{"inputs":[{"internalType":"uint256","name":"assets","type":"uint256"}],"name":"convertToShares","outputs":[{"internalType":"uint256","name":"","type":"uint256"}],"stateMutability":"view","type":"function"},{"inputs":[],"name":"decimals","outputs":[{"internalType":"uint8","name":"","type":"uint8"}],"stateMutability":"view","type":"function"},{"inputs":[{"internalType":"uint256","name":"assets","type":"uint256"},{"internalType":"address","name":"receiver","type":"address"}],"name":"deposit","outputs":[{"internalType":"uint256","name":"","type":"uint256"}],"stateMutability":"nonpayable","type":"function"},{"inputs":[],"name":"donationRouter","outputs":[{"internalType":"address","name":"","type":"address"}],"stateMutability":"view","type":"function"},{"inputs":[{"internalType":"uint256","name":"amount","type":"uint256"}],"name":"emergencyDivest","outputs":[],"stateMutability":"nonpayable","type":"function"},{"inputs":[],"name":"harvest","outputs":[],"stateMutability":"nonpayable","type":"function"},{"inputs":[{"internalType":"address","name":"","type":"address"}],"name":"maxDeposit","outputs":[{"internalType":"uint256","name":"","type":"uint256"}],"stateMutability":"view","type":"function"},{"inputs":[{"internalType":"address","name":"","type":"address"}],"name":"maxMint","outputs":[{"internalType":"uint256","name":"","type":"uint256"}],"stateMutability":"view","type":"function"},{"inputs":[{"internalType":"address","name":"owner","type":"address"}],"name":"maxRedeem","outputs":[{"internalType":"uint256","name":"","type":"uint256"}],"stateMutability":"view","type":"function"},{"inputs":[{"internalType":"address","name":"owner","type":"address"}],"name":"maxWithdraw","outputs":[{"internalType":"uint256","name":"","type":"uint256"}],"stateMutability":"view","type":"function"},{"inputs":[{"internalType":"uint256","name":"shares","type":"uint256"},{"internalType":"address","name":"receiver","type":"address"}],"name":"mint","outputs":[{"internalType":"uint256","name":"","type":"uint256"}],"stateMutability":"nonpayable","type":"function"},{"inputs":[],"name":"name","outputs":[{"internalType":"string","name":"","type":"string"}],"stateMutability":"view","type":"function"},{"inputs":[],"name":"owner","outputs":[{"internalType":"address","name":"","type":"address"}],"stateMutability":"view","type":"function"},{"inputs":[],"name":"paused","outputs":[{"internalType":"bool","name":"","type":"bool"}],"stateMutability":"view","type":"function"},{"inputs":[{"internalType":"uint256","name":"assets","type":"uint256"}],"name":"previewDeposit","outputs":[{"internalType":"uint256","name":"","type":"uint256"}],"stateMutability":"view","type":"function"},{"inputs":[{"internalType":"uint256","name":"shares","type":"uint256"}],"name":"previewMint","outputs":[{"internalType":"uint256","name":"","type":"uint256"}],"stateMutability":"view","type":"function"},{"inputs":[{"internalType":"uint256","name":"shares","type":"uint256"}],"name":"previewRedeem","outputs":[{"internalType":"uint256","name":"","type":"uint256"}],"stateMutability":"view","type":"function"},{"inputs":[{"internalType":"uint256","name":"assets","type":"uint256"}],"name":"previewWithdraw","outputs":[{"internalType":"uint256","name":"","type":"uint256"}],"stateMutability":"view","type":"function"},{"inputs":[{"internalType":"uint256","name":"shares","type":"uint256"},{"internalType":"address","name":"receiver","type":"address"},{"internalType":"address","name":"owner","type":"address"}],"name":"redeem","outputs":[{"internalType":"uint256","name":"","type":"uint256"}],"stateMutability":"nonpayable","type":"function"},{"inputs":[],"name":"renounceOwnership","outputs":[],"stateMutability":"nonpayable","type":"function"},{"inputs":[{"internalType":"address","name":"_beneficiary","type":"address"}],"name":"setBeneficiary","outputs":[],"stateMutability":"nonpayable","type":"function"},{"inputs":[{"internalType":"address","name":"_donationRouter","type":"address"}],"name":"setDonationRouter","outputs":[],"stateMutability":"nonpayable","type":"function"},{"inputs":[{"internalType":"bool","name":"_paused","type":"bool"}],"name":"setPaused","outputs":[],"stateMutability":"nonpayable","type":"function"},{"inputs":[{"internalType":"contract IYieldStrategy","name":"_strategy","type":"address"}],"name":"setStrategy","outputs":[],"stateMutability":"nonpayable","type":"function"},{"inputs":[],"name":"strategy","outputs":[{"internalType":"contract IYieldStrategy","name":"","type":"address"}],"stateMutability":"view","type":"function"},{"inputs":[],"name":"symbol","outputs":[{"internalType":"string","name":"","type":"string"}],"stateMutability":"view","type":"function"},{"inputs":[],"name":"totalAssets","outputs":[{"internalType":"uint256","name":"","type":"uint256"}],"stateMutability":"view","type":"function"},{"inputs":[],"name":"totalDonated","outputs":[{"internalType":"uint256","name":"","type":"uint256"}],"stateMutability":"view","type":"function"},{"inputs":[],"name":"totalSupply","outputs":[{"internalType":"uint256","name":"","type":"uint256"}],"stateMutability":"view","type":"function"},{"inputs":[{"internalType":"address","name":"to","type":"address"},{"internalType":"uint256","name":"value","type":"uint256"}],"name":"transfer","outputs":[{"internalType":"bool","name":"","type":"bool"}],"stateMutability":"nonpayable","type":"function"},{"inputs":[{"internalType":"address","name":"from","type":"address"},{"internalType":"address","name":"to","type":"address"},{"internalType":"uint256","name":"value","type":"uint256"}],"name":"transferFrom","outputs":[{"internalType":"bool","name":"","type":"bool"}],"stateMutability":"nonpayable","type":"function"},{"inputs":[{"internalType":"address","name":"newOwner","type":"address"}],"name":"transferOwnership","outputs":[],"stateMutability":"nonpayable","type":"function"},{"inputs":[{"internalType":"uint256","name":"assets","type":"uint256"},{"internalType":"address","name":"receiver","type":"address"},{"internalType":"address","name":"owner","type":"address"}],"name":"withdraw","outputs":[{"internalType":"uint256","name":"","type":"uint256"}],"stateMutability":"nonpayable","type":"function"}],"evm":{"bytecode":{"linkReferences":{},"object":"60c06040523480156200001157600080fd5b50604051620027f3380380620027f383398101604081905262000034916200052e565b3386838360036200004683826200067c565b5060046200005582826200067c565b5050506000806200006c836200031160201b60201c565b91509150816200007e57601262000080565b805b60ff1660a05250506001600160a01b039081166080528116620000be57604051631e4fbdf760e01b8152600060048201526024015b60405180910390fd5b620000c981620003f6565b5060016006556001600160a01b038516620001365760405162461bcd60e51b815260206004820152602660248201527f5969656c6434476f6f645661756c743a207a65726f207374726174656779206160448201526564647265737360d01b6064820152608401620000b5565b6001600160a01b0384166200019a5760405162461bcd60e51b8152602060048201526024808201527f5969656c6434476f6f645661756c743a207a65726f20726f75746572206164646044820152637265737360e01b6064820152608401620000b5565b6001600160a01b038316620002045760405162461bcd60e51b815260206004820152602960248201527f5969656c6434476f6f645661756c743a207a65726f2062656e6566696369617260448201526879206164647265737360b81b6064820152608401620000b5565b846001600160a01b03166338d52e0f6040518163ffffffff1660e01b8152600401602060405180830381865afa15801562000243573d6000803e3d6000fd5b505050506040513d601f19601f8201168201806040525081019062000269919062000748565b6001600160a01b0316866001600160a01b031614620002cb5760405162461bcd60e51b815260206004820152601f60248201527f5969656c6434476f6f645661756c743a206173736574206d69736d61746368006044820152606401620000b5565b5050600780546001600160a01b039485166001600160a01b03199182161790915560088054938516938216939093179092556009805491909316911617905550620007a7565b60408051600481526024810182526020810180516001600160e01b031663313ce56760e01b17905290516000918291829182916001600160a01b038716916200035a916200076f565b600060405180830381855afa9150503d806000811462000397576040519150601f19603f3d011682016040523d82523d6000602084013e6200039c565b606091505b5091509150818015620003b157506020815110155b15620003e957600081806020019051810190620003cf91906200078d565b905060ff8111620003e7576001969095509350505050565b505b5060009485945092505050565b600580546001600160a01b038381166001600160a01b0319831681179093556040519116919082907f8be0079c531659141344cd1fd0a4f28419497f9722a3daafe3b4186f6b6457e090600090a35050565b6001600160a01b03811681146200045e57600080fd5b50565b634e487b7160e01b600052604160045260246000fd5b60005b83811015620004945781810151838201526020016200047a565b50506000910152565b600082601f830112620004af57600080fd5b81516001600160401b0380821115620004cc57620004cc62000461565b604051601f8301601f19908116603f01168101908282118183101715620004f757620004f762000461565b816040528381528660208588010111156200051157600080fd5b6200052484602083016020890162000477565b9695505050505050565b60008060008060008060c087890312156200054857600080fd5b8651620005558162000448565b6020880151909650620005688162000448565b60408801519095506200057b8162000448565b60608801519094506200058e8162000448565b60808801519093506001600160401b0380821115620005ac57600080fd5b620005ba8a838b016200049d565b935060a0890151915080821115620005d157600080fd5b50620005e089828a016200049d565b9150509295509295509295565b600181811c908216806200060257607f821691505b6020821081036200062357634e487b7160e01b600052602260045260246000fd5b50919050565b601f8211156200067757600081815260208120601f850160051c81016020861015620006525750805b601f850160051c820191505b8181101562000673578281556001016200065e565b5050505b505050565b81516001600160401b0381111562000698576200069862000461565b620006b081620006a98454620005ed565b8462000629565b602080601f831160018114620006e85760008415620006cf5750858301515b600019600386901b1c1916600185901b17855562000673565b600085815260208120601f198616915b828110156200071957888601518255948401946001909101908401620006f8565b5085821015620007385787850151600019600388901b60f8161c191681555b5050505050600190811b01905550565b6000602082840312156200075b57600080fd5b8151620007688162000448565b9392505050565b600082516200078381846020870162000477565b9190910192915050565b600060208284031215620007a057600080fd5b5051919050565b60805160a051611fe76200080c6000396000610860015260008181610360015281816105b10152818161095e01528181610b0301528181610b460152818161126d01528181611311015281816113fc01528181611889015261193b0152611fe76000f3fe608060405234801561001057600080fd5b506004361061023c5760003560e01c80636e553f651161013b578063b3d7f6b9116100b8578063ce96cb771161007c578063ce96cb77146104d0578063d905777e146104e3578063dd62ed3e146104f6578063ef8b30f7146104bd578063f2fde38b1461052f57600080fd5b8063b3d7f6b914610484578063b460af9414610497578063ba087652146104aa578063c63d75b614610384578063c6e6f592146104bd57600080fd5b806394bf804d116100ff57806394bf804d1461043057806395d89b4114610443578063a6cc1cec1461044b578063a8c62e761461045e578063a9059cbb1461047157600080fd5b80636e553f65146103c857806370a08231146103db578063715018a61461040457806388f973f01461040c5780638da5cb5b1461041f57600080fd5b806323b872dd116101c9578063402d267d1161018d578063402d267d146103845780634641257d146103995780634cdad5061461027a5780635c975abb146103a15780636295042d146103b557600080fd5b806323b872dd146102f3578063313ce5671461030657806333a100ca1461032057806338af3eed1461033357806338d52e0f1461035e57600080fd5b8063095ea7b311610210578063095ea7b31461028d5780630a28a477146102b057806316c38b3c146102c357806318160ddd146102d85780631c31f710146102e057600080fd5b8062b370441461024157806301e1d1141461025d57806306fdde031461026557806307a2d13a1461027a575b600080fd5b61024a600a5481565b6040519081526020015b60405180910390f35b61024a610542565b61026d610649565b6040516102549190611bb4565b61024a610288366004611c02565b6106db565b6102a061029b366004611c30565b6106ee565b6040519015158152602001610254565b61024a6102be366004611c02565b610706565b6102d66102d1366004611c5c565b610713565b005b60025461024a565b6102d66102ee366004611c7e565b610773565b6102a0610301366004611c9b565b610832565b61030e610858565b60405160ff9091168152602001610254565b6102d661032e366004611c7e565b610884565b600954610346906001600160a01b031681565b6040516001600160a01b039091168152602001610254565b7f0000000000000000000000000000000000000000000000000000000000000000610346565b61024a610392366004611c7e565b5060001990565b6102d6610a1d565b6009546102a090600160a01b900460ff1681565b6102d66103c3366004611c02565b610c36565b61024a6103d6366004611cdc565b610d3d565b61024a6103e9366004611c7e565b6001600160a01b031660009081526020819052604090205490565b6102d6610d63565b600854610346906001600160a01b031681565b6005546001600160a01b0316610346565b61024a61043e366004611cdc565b610d75565b61026d610d93565b6102d6610459366004611c7e565b610da2565b600754610346906001600160a01b031681565b6102a061047f366004611c30565b610e56565b61024a610492366004611c02565b610e64565b61024a6104a5366004611d0c565b610e71565b61024a6104b8366004611d0c565b610ec9565b61024a6104cb366004611c02565b610f18565b61024a6104de366004611c7e565b610f25565b61024a6104f1366004611c7e565b610f49565b61024a610504366004611d4e565b6001600160a01b03918216600090815260016020908152604080832093909416825291909152205490565b6102d661053d366004611c7e565b610f67565b600754604080516278744560e21b815290516000926001600160a01b0316916301e1d1149160048083019260209291908290030181865afa15801561058b573d6000803e3d6000fd5b505050506040513d601f19601f820116820180604052508101906105af9190611d7c565b7f00000000000000000000000000000000000000000000000000000000000000006040516370a0823160e01b81523060048201526001600160a01b0391909116906370a0823190602401602060405180830381865afa158015610616573d6000803e3d6000fd5b505050506040513d601f19601f8201168201806040525081019061063a9190611d7c565b6106449190611dab565b905090565b60606003805461065890611dbe565b80601f016020809104026020016040519081016040528092919081815260200182805461068490611dbe565b80156106d15780601f106106a6576101008083540402835291602001916106d1565b820191906000526020600020905b8154815290600101906020018083116106b457829003601f168201915b5050505050905090565b60006106e8826000610fa5565b92915050565b6000336106fc818585610fdf565b5060019392505050565b60006106e8826001610ff1565b61071b611021565b60098054821515600160a01b0260ff60a01b199091161790556040517f0e2fb031ee032dc02d8011dc50b816eb450cf856abd8261680dac74f72165bd29061076890831515815260200190565b60405180910390a150565b61077b611021565b6001600160a01b0381166107e85760405162461bcd60e51b815260206004820152602960248201527f5969656c6434476f6f645661756c743a207a65726f2062656e6566696369617260448201526879206164647265737360b81b60648201526084015b60405180910390fd5b600980546001600160a01b0319166001600160a01b0383169081179091556040517f373c72efabe4ef3e552ff77838be729f3bc3d8c586df0012902d1baa2377fa1d90600090a250565b60003361084085828561104e565b61084b8585856110ba565b60019150505b9392505050565b6000610644817f0000000000000000000000000000000000000000000000000000000000000000611df8565b61088c611021565b6001600160a01b0381166108f15760405162461bcd60e51b815260206004820152602660248201527f5969656c6434476f6f645661756c743a207a65726f207374726174656779206160448201526564647265737360d01b60648201526084016107df565b806001600160a01b03166338d52e0f6040518163ffffffff1660e01b8152600401602060405180830381865afa15801561092f573d6000803e3d6000fd5b505050506040513d601f19601f820116820180604052508101906109539190611e11565b6001600160a01b03167f00000000000000000000000000000000000000000000000000000000000000006001600160a01b0316146109d35760405162461bcd60e51b815260206004820152601f60248201527f5969656c6434476f6f645661756c743a206173736574206d69736d617463680060448201526064016107df565b600780546001600160a01b0319166001600160a01b0383169081179091556040517fafd1cdc355e15bfc9038294be1c6203ce953704fda8c991bebe78ddd4d5420d190600090a250565b610a25611119565b600954600160a01b900460ff1615610a795760405162461bcd60e51b8152602060048201526017602482015276165a595b190d11dbdbd915985d5b1d0e881c185d5cd959604a1b60448201526064016107df565b60075460408051634641257d60e01b815290516000926001600160a01b031691634641257d916004808301926020929190829003018187875af1158015610ac4573d6000803e3d6000fd5b505050506040513d601f19601f82011682018060405250810190610ae89190611d7c565b90508015610c2957600854610b33906001600160a01b0316827f00000000000000000000000000000000000000000000000000000000000000005b6001600160a01b03169190611143565b6008546001600160a01b031663386bc05a7f000000000000000000000000000000000000000000000000000000000000000060095460405160e084901b6001600160e01b03191681526001600160a01b0392831660048201529116602482015260448101849052606401600060405180830381600087803b158015610bb757600080fd5b505af1158015610bcb573d6000803e3d6000fd5b5050505080600a6000828254610be19190611dab565b90915550506009546040518281526001600160a01b03909116907f5ecb395fc35457dd837c7b6d8b82f53844c0acb2898d6c8f4261c5bc4dbd03509060200160405180910390a25b50610c346001600655565b565b610c3e611021565b60008111610c8e5760405162461bcd60e51b815260206004820152601c60248201527f5969656c6434476f6f645661756c743a207a65726f20616d6f756e740000000060448201526064016107df565b600754604051638ca1799560e01b8152600481018390526000916001600160a01b031690638ca17995906024016020604051808303816000875af1158015610cda573d6000803e3d6000fd5b505050506040513d601f19601f82011682018060405250810190610cfe9190611d7c565b90507f8dac4de18f55e97d80a8be7d07896f47a1e3893af0d492214e6d0a93fd868f4b81604051610d3191815260200190565b60405180910390a15050565b60006000196000610d4d85610f18565b9050610d5b33858784611201565b949350505050565b610d6b611021565b610c34600061139e565b60006000196000610d8585610e64565b9050610d5b33858388611201565b60606004805461065890611dbe565b610daa611021565b6001600160a01b038116610e0c5760405162461bcd60e51b8152602060048201526024808201527f5969656c6434476f6f645661756c743a207a65726f20726f75746572206164646044820152637265737360e01b60648201526084016107df565b600880546001600160a01b0319166001600160a01b0383169081179091556040517f2f40c283c1f4a3e25c690762020d50b7dd16bbf2c6cbc01045a5ba4911e77aa390600090a250565b6000336106fc8185856110ba565b60006106e8826001610fa5565b600080610e7d83610f25565b905080851115610ea657828582604051633fa733bb60e21b81526004016107df93929190611e2e565b6000610eb186610706565b9050610ec033868689856113f0565b95945050505050565b600080610ed583610f49565b905080851115610efe57828582604051632e52afbb60e21b81526004016107df93929190611e2e565b6000610f09866106db565b9050610ec0338686848a6113f0565b60006106e8826000610ff1565b6001600160a01b0381166000908152602081905260408120546106e8906000610fa5565b6001600160a01b0381166000908152602081905260408120546106e8565b610f6f611021565b6001600160a01b038116610f9957604051631e4fbdf760e01b8152600060048201526024016107df565b610fa28161139e565b50565b6000610851610fb2610542565b610fbd906001611dab565b610fc96000600a611f33565b600254610fd69190611dab565b85919085611594565b610fec83838360016115d8565b505050565b600061085161100182600a611f33565b60025461100e9190611dab565b611016610542565b610fd6906001611dab565b6005546001600160a01b03163314610c345760405163118cdaa760e01b81523360048201526024016107df565b6001600160a01b038381166000908152600160209081526040808320938616835292905220546000198110156110b457818110156110a557828183604051637dc7a0d960e11b81526004016107df93929190611e2e565b6110b4848484840360006115d8565b50505050565b6001600160a01b0383166110e457604051634b637e8f60e11b8152600060048201526024016107df565b6001600160a01b03821661110e5760405163ec442f0560e01b8152600060048201526024016107df565b610fec8383836116ad565b60026006540361113c57604051633ee5aeb560e01b815260040160405180910390fd5b6002600655565b604080516001600160a01b038416602482015260448082018490528251808303909101815260649091019091526020810180516001600160e01b031663095ea7b360e01b17905261119484826117c4565b6110b4576040516001600160a01b038481166024830152600060448301526111f791869182169063095ea7b3906064015b604051602081830303815290604052915060e01b6020820180516001600160e01b038381831617835250505050611813565b6110b48482611813565b600954600160a01b900460ff16156112555760405162461bcd60e51b8152602060048201526017602482015276165a595b190d11dbdbd915985d5b1d0e881c185d5cd959604a1b60448201526064016107df565b61125d611119565b61126984848484611884565b60007f00000000000000000000000000000000000000000000000000000000000000006040516370a0823160e01b81523060048201526001600160a01b0391909116906370a0823190602401602060405180830381865afa1580156112d2573d6000803e3d6000fd5b505050506040513d601f19601f820116820180604052508101906112f69190611d7c565b9050801561139357600754611335906001600160a01b0316827f0000000000000000000000000000000000000000000000000000000000000000610b23565b6007546040516255f9e960e71b8152600481018390526001600160a01b0390911690632afcf48090602401600060405180830381600087803b15801561137a57600080fd5b505af115801561138e573d6000803e3d6000fd5b505050505b506110b46001600655565b600580546001600160a01b038381166001600160a01b0319831681179093556040519116919082907f8be0079c531659141344cd1fd0a4f28419497f9722a3daafe3b4186f6b6457e090600090a35050565b6113f8611119565b60007f00000000000000000000000000000000000000000000000000000000000000006040516370a0823160e01b81523060048201526001600160a01b0391909116906370a0823190602401602060405180830381865afa158015611461573d6000803e3d6000fd5b505050506040513d601f19601f820116820180604052508101906114859190611d7c565b90508083111561157557600061149b8285611f42565b600754604051638ca1799560e01b8152600481018390529192506000916001600160a01b0390911690638ca17995906024016020604051808303816000875af11580156114ec573d6000803e3d6000fd5b505050506040513d601f19601f820116820180604052508101906115109190611d7c565b9050818110156115725760405162461bcd60e51b815260206004820152602760248201527f5969656c6434476f6f645661756c743a20696e73756666696369656e74206c696044820152667175696469747960c81b60648201526084016107df565b50505b6115828686868686611908565b5061158d6001600655565b5050505050565b60006115c36115a2836119c8565b80156115be5750600084806115b9576115b9611f55565b868809115b151590565b6115ce8686866119f5565b610ec09190611dab565b6001600160a01b0384166116025760405163e602df0560e01b8152600060048201526024016107df565b6001600160a01b03831661162c57604051634a1406b160e11b8152600060048201526024016107df565b6001600160a01b03808516600090815260016020908152604080832093871683529290522082905580156110b457826001600160a01b0316846001600160a01b03167f8c5be1e5ebec7d5bd14f71427d1e84f3dd0314c0f7b2291e5b200ac8c7c3b9258460405161169f91815260200190565b60405180910390a350505050565b6001600160a01b0383166116d85780600260008282546116cd9190611dab565b909155506117379050565b6001600160a01b038316600090815260208190526040902054818110156117185783818360405163391434e360e21b81526004016107df93929190611e2e565b6001600160a01b03841660009081526020819052604090209082900390555b6001600160a01b03821661175357600280548290039055611772565b6001600160a01b03821660009081526020819052604090208054820190555b816001600160a01b0316836001600160a01b03167fddf252ad1be2c89b69c2b068fc378daa952ba7f163c4a11628f55a4df523b3ef836040516117b791815260200190565b60405180910390a3505050565b6000806000806020600086516020880160008a5af192503d91506000519050828015611809575081156117fa5780600114611809565b6000866001600160a01b03163b115b9695505050505050565b600080602060008451602086016000885af180611836576040513d6000823e3d81fd5b50506000513d9150811561184e57806001141561185b565b6001600160a01b0384163b155b156110b457604051635274afe760e01b81526001600160a01b03851660048201526024016107df565b6118b07f0000000000000000000000000000000000000000000000000000000000000000853085611aaa565b6118ba8382611ae3565b826001600160a01b0316846001600160a01b03167fdcbc1c05240f31ff3ad067ef1ee35ce4997762752e3a095284754544f4c709d7848460405161169f929190918252602082015260400190565b826001600160a01b0316856001600160a01b03161461192c5761192c83868361104e565b6119368382611b1d565b6119617f00000000000000000000000000000000000000000000000000000000000000008584611b53565b826001600160a01b0316846001600160a01b0316866001600160a01b03167ffbde797d201c681b91056529119e0b02407c7bb96a4a2c75c01fc9667232c8db85856040516119b9929190918252602082015260400190565b60405180910390a45050505050565b600060028260038111156119de576119de611f6b565b6119e89190611f81565b60ff166001149050919050565b6000806000611a048686611b84565b9150915081600003611a2957838181611a1f57611a1f611f55565b0492505050610851565b818411611a4057611a406003851502601118611ba2565b6000848688096000868103871696879004966002600389028118808a02820302808a02820302808a02820302808a02820302808a02820302808a02909103029181900381900460010185841190960395909502919093039390930492909217029150509392505050565b6040516001600160a01b0384811660248301528381166044830152606482018390526110b49186918216906323b872dd906084016111c5565b6001600160a01b038216611b0d5760405163ec442f0560e01b8152600060048201526024016107df565b611b19600083836116ad565b5050565b6001600160a01b038216611b4757604051634b637e8f60e11b8152600060048201526024016107df565b611b19826000836116ad565b6040516001600160a01b03838116602483015260448201839052610fec91859182169063a9059cbb906064016111c5565b60008060001983850993909202808410938190039390930393915050565b634e487b71600052806020526024601cfd5b600060208083528351808285015260005b81811015611be157858101830151858201604001528201611bc5565b506000604082860101526040601f19601f8301168501019250505092915050565b600060208284031215611c1457600080fd5b5035919050565b6001600160a01b0381168114610fa257600080fd5b60008060408385031215611c4357600080fd5b8235611c4e81611c1b565b946020939093013593505050565b600060208284031215611c6e57600080fd5b8135801515811461085157600080fd5b600060208284031215611c9057600080fd5b813561085181611c1b565b600080600060608486031215611cb057600080fd5b8335611cbb81611c1b565b92506020840135611ccb81611c1b565b929592945050506040919091013590565b60008060408385031215611cef57600080fd5b823591506020830135611d0181611c1b565b809150509250929050565b600080600060608486031215611d2157600080fd5b833592506020840135611d3381611c1b565b91506040840135611d4381611c1b565b809150509250925092565b60008060408385031215611d6157600080fd5b8235611d6c81611c1b565b91506020830135611d0181611c1b565b600060208284031215611d8e57600080fd5b5051919050565b634e487b7160e01b600052601160045260246000fd5b808201808211156106e8576106e8611d95565b600181811c90821680611dd257607f821691505b602082108103611df257634e487b7160e01b600052602260045260246000fd5b50919050565b60ff81811683821601908111156106e8576106e8611d95565b600060208284031215611e2357600080fd5b815161085181611c1b565b6001600160a01b039390931683526020830191909152604082015260600190565b600181815b80851115611e8a578160001904821115611e7057611e70611d95565b80851615611e7d57918102915b93841c9390800290611e54565b509250929050565b600082611ea1575060016106e8565b81611eae575060006106e8565b8160018114611ec45760028114611ece57611eea565b60019150506106e8565b60ff841115611edf57611edf611d95565b50506001821b6106e8565b5060208310610133831016604e8410600b8410161715611f0d575081810a6106e8565b611f178383611e4f565b8060001904821115611f2b57611f2b611d95565b029392505050565b600061085160ff841683611e92565b818103818111156106e8576106e8611d95565b634e487b7160e01b600052601260045260246000fd5b634e487b7160e01b600052602160045260246000fd5b600060ff831680611fa257634e487b7160e01b600052601260045260246000fd5b8060ff8416069150509291505056fea26469706673582212209528a1b87a8bb9ca0e82b34f7d114c94b47be829382038fdd580a325c911e6c264736f6c63430008140033","opcodes":"PUSH1 0xC0 PUSH1 0x40 MSTORE CALLVALUE DUP1 ISZERO PUSH3 0x11 JUMPI PUSH1 0x0 DUP1 REVERT JUMPDEST POP PUSH1 0x40 MLOAD PUSH3 0x27F3 CODESIZE SUB DUP1 PUSH3 0x27F3 DUP4 CODECOPY DUP2 ADD PUSH1 0x40 DUP2 SWAP1 MSTORE PUSH3 0x34 SWAP2 PUSH3 0x52E JUMP JUMPDEST CALLER DUP7 DUP4 DUP4 PUSH1 0x3 PUSH3 0x46 DUP4 DUP3 PUSH3 0x67C JUMP JUMPDEST POP PUSH1 0x4 PUSH3 0x55 DUP3 DUP3 PUSH3 0x67C JUMP JUMPDEST POP POP POP PUSH1 0x0 DUP1 PUSH3 0x6C DUP4 PUSH3 0x311 PUSH1 0x20 SHL PUSH1 0x20 SHR JUMP JUMPDEST SWAP2 POP SWAP2 POP DUP2 PUSH3 0x7E JUMPI PUSH1 0x12 PUSH3 0x80 JUMP JUMPDEST DUP1 JUMPDEST PUSH1 0xFF AND PUSH1 0xA0 MSTORE POP POP PUSH1 0x1 PUSH1 0x1 PUSH1 0xA0 SHL SUB SWAP1 DUP2 AND PUSH1 0x80 MSTORE DUP2 AND PUSH3 0xBE JUMPI PUSH1 0x40 MLOAD PUSH4 0x1E4FBDF7 PUSH1 0xE0 SHL DUP2 MSTORE PUSH1 0x0 PUSH1 0x4 DUP3 ADD MSTORE PUSH1 0x24 ADD JUMPDEST PUSH1 0x40 MLOAD DUP1 SWAP2 SUB SWAP1 REVERT JUMPDEST PUSH3 0xC9 DUP2 PUSH3 0x3F6 JUMP JUMPDEST POP PUSH1 0x1 PUSH1 0x6 SSTORE PUSH1 0x1 PUSH1 0x1 PUSH1 0xA0 SHL SUB DUP6 AND PUSH3 0x136 JUMPI PUSH1 0x40 MLOAD PUSH3 0x461BCD PUSH1 0xE5 SHL DUP2 MSTORE PUSH1 0x20 PUSH1 0x4 DUP3 ADD MSTORE PUSH1 0x26 PUSH1 0x24 DUP3 ADD MSTORE PUSH32 0x5969656C6434476F6F645661756C743A207A65726F2073747261746567792061 PUSH1 0x44 DUP3 ADD MSTORE PUSH6 0x646472657373 PUSH1 0xD0 SHL PUSH1 0x64 DUP3 ADD MSTORE PUSH1 0x84 ADD PUSH3 0xB5 JUMP JUMPDEST PUSH1 0x1 PUSH1 0x1 PUSH1 0xA0 SHL SUB DUP5 AND PUSH3 0x19A JUMPI PUSH1 0x40 MLOAD PUSH3 0x461BCD PUSH1 0xE5 SHL DUP2 MSTORE PUSH1 0x20 PUSH1 0x4 DUP3 ADD MSTORE PUSH1 0x24 DUP1 DUP3 ADD MSTORE PUSH32 0x5969656C6434476F6F645661756C743A207A65726F20726F7574657220616464 PUSH1 0x44 DUP3 ADD MSTORE PUSH4 0x72657373 PUSH1 0xE0 SHL PUSH1 0x64 DUP3 ADD MSTORE PUSH1 0x84 ADD PUSH3 0xB5 JUMP JUMPDEST PUSH1 0x1 PUSH1 0x1 PUSH1 0xA0 SHL SUB DUP4 AND PUSH3 0x204 JUMPI PUSH1 0x40 MLOAD PUSH3 0x461BCD PUSH1 0xE5 SHL DUP2 MSTORE PUSH1 0x20 PUSH1 0x4 DUP3 ADD MSTORE PUSH1 0x29 PUSH1 0x24 DUP3 ADD MSTORE PUSH32 0x5969656C6434476F6F645661756C743A207A65726F2062656E65666963696172 PUSH1 0x44 DUP3 ADD MSTORE PUSH9 0x792061646472657373 PUSH1 0xB8 SHL PUSH1 0x64 DUP3 ADD MSTORE PUSH1 0x84 ADD PUSH3 0xB5 JUMP JUMPDEST DUP5 PUSH1 0x1 PUSH1 0x1 PUSH1 0xA0 SHL SUB AND PUSH4 0x38D52E0F PUSH1 0x40 MLOAD DUP2 PUSH4 0xFFFFFFFF AND PUSH1 0xE0 SHL DUP2 MSTORE PUSH1 0x4 ADD PUSH1 0x20 PUSH1 0x40 MLOAD DUP1 DUP4 SUB DUP2 DUP7 GAS STATICCALL ISZERO DUP1 ISZERO PUSH3 0x243 JUMPI RETURNDATASIZE PUSH1 0x0 DUP1 RETURNDATACOPY RETURNDATASIZE PUSH1 0x0 REVERT JUMPDEST POP POP POP POP PUSH1 0x40 MLOAD RETURNDATASIZE PUSH1 0x1F NOT PUSH1 0x1F DUP3 ADD AND DUP3 ADD DUP1 PUSH1 0x40 MSTORE POP DUP2 ADD SWAP1 PUSH3 0x269 SWAP2 SWAP1 PUSH3 0x748 JUMP JUMPDEST PUSH1 0x1 PUSH1 0x1 PUSH1 0xA0 SHL SUB AND DUP7 PUSH1 0x1 PUSH1 0x1 PUSH1 0xA0 SHL SUB AND EQ PUSH3 0x2CB JUMPI PUSH1 0x40 MLOAD PUSH3 0x461BCD PUSH1 0xE5 SHL DUP2 MSTORE PUSH1 0x20 PUSH1 0x4 DUP3 ADD MSTORE PUSH1 0x1F PUSH1 0x24 DUP3 ADD MSTORE PUSH32 0x5969656C6434476F6F645661756C743A206173736574206D69736D6174636800 PUSH1 0x44 DUP3 ADD MSTORE PUSH1 0x64 ADD PUSH3 0xB5 JUMP JUMPDEST POP POP PUSH1 0x7 DUP1 SLOAD PUSH1 0x1 PUSH1 0x1 PUSH1 0xA0 SHL SUB SWAP5 DUP6 AND PUSH1 0x1 PUSH1 0x1 PUSH1 0xA0 SHL SUB NOT SWAP2 DUP3 AND OR SWAP1 SWAP2 SSTORE PUSH1 0x8 DUP1 SLOAD SWAP4 DUP6 AND SWAP4 DUP3 AND SWAP4 SWAP1 SWAP4 OR SWAP1 SWAP3 SSTORE PUSH1 0x9 DUP1 SLOAD SWAP2 SWAP1 SWAP4 AND SWAP2 AND OR SWAP1 SSTORE POP PUSH3 0x7A7 JUMP JUMPDEST PUSH1 0x40 DUP1 MLOAD PUSH1 0x4 DUP2 MSTORE PUSH1 0x24 DUP2 ADD DUP3 MSTORE PUSH1 0x20 DUP2 ADD DUP1 MLOAD PUSH1 0x1 PUSH1 0x1 PUSH1 0xE0 SHL SUB AND PUSH4 0x313CE567 PUSH1 0xE0 SHL OR SWAP1 MSTORE SWAP1 MLOAD PUSH1 0x0 SWAP2 DUP3 SWAP2 DUP3 SWAP2 DUP3 SWAP2 PUSH1 0x1 PUSH1 0x1 PUSH1 0xA0 SHL SUB DUP8 AND SWAP2 PUSH3 0x35A SWAP2 PUSH3 0x76F JUMP JUMPDEST PUSH1 0x0 PUSH1 0x40 MLOAD DUP1 DUP4 SUB DUP2 DUP6 GAS STATICCALL SWAP2 POP POP RETURNDATASIZE DUP1 PUSH1 0x0 DUP2 EQ PUSH3 0x397 JUMPI PUSH1 0x40 MLOAD SWAP2 POP PUSH1 0x1F NOT PUSH1 0x3F RETURNDATASIZE ADD AND DUP3 ADD PUSH1 0x40 MSTORE RETURNDATASIZE DUP3 MSTORE RETURNDATASIZE PUSH1 0x0 PUSH1 0x20 DUP5 ADD RETURNDATACOPY PUSH3 0x39C JUMP JUMPDEST PUSH1 0x60 SWAP2 POP JUMPDEST POP SWAP2 POP SWAP2 POP DUP2 DUP1 ISZERO PUSH3 0x3B1 JUMPI POP PUSH1 0x20 DUP2 MLOAD LT ISZERO JUMPDEST ISZERO PUSH3 0x3E9 JUMPI PUSH1 0x0 DUP2 DUP1 PUSH1 0x20 ADD SWAP1 MLOAD DUP2 ADD SWAP1 PUSH3 0x3CF SWAP2 SWAP1 PUSH3 0x78D JUMP JUMPDEST SWAP1 POP PUSH1 0xFF DUP2 GT PUSH3 0x3E7 JUMPI PUSH1 0x1 SWAP7 SWAP1 SWAP6 POP SWAP4 POP POP POP POP JUMP JUMPDEST POP JUMPDEST POP PUSH1 0x0 SWAP5 DUP6 SWAP5 POP SWAP3 POP POP POP JUMP JUMPDEST PUSH1 0x5 DUP1 SLOAD PUSH1 0x1 PUSH1 0x1 PUSH1 0xA0 SHL SUB DUP4 DUP2 AND PUSH1 0x1 PUSH1 0x1 PUSH1 0xA0 SHL SUB NOT DUP4 AND DUP2 OR SWAP1 SWAP4 SSTORE PUSH1 0x40 MLOAD SWAP2 AND SWAP2 SWAP1 DUP3 SWAP1 PUSH32 0x8BE0079C531659141344CD1FD0A4F28419497F9722A3DAAFE3B4186F6B6457E0 SWAP1 PUSH1 0x0 SWAP1 LOG3 POP POP JUMP JUMPDEST PUSH1 0x1 PUSH1 0x1 PUSH1 0xA0 SHL SUB DUP2 AND DUP2 EQ PUSH3 0x45E JUMPI PUSH1 0x0 DUP1 REVERT JUMPDEST POP JUMP JUMPDEST PUSH4 0x4E487B71 PUSH1 0xE0 SHL PUSH1 0x0 MSTORE PUSH1 0x41 PUSH1 0x4 MSTORE PUSH1 0x24 PUSH1 0x0 REVERT JUMPDEST PUSH1 0x0 JUMPDEST DUP4 DUP2 LT ISZERO PUSH3 0x494 JUMPI DUP2 DUP2 ADD MLOAD DUP4 DUP3 ADD MSTORE PUSH1 0x20 ADD PUSH3 0x47A JUMP JUMPDEST POP POP PUSH1 0x0 SWAP2 ADD MSTORE JUMP JUMPDEST PUSH1 0x0 DUP3 PUSH1 0x1F DUP4 ADD SLT PUSH3 0x4AF JUMPI PUSH1 0x0 DUP1 REVERT JUMPDEST DUP2 MLOAD PUSH1 0x1 PUSH1 0x1 PUSH1 0x40 SHL SUB DUP1 DUP3 GT ISZERO PUSH3 0x4CC JUMPI PUSH3 0x4CC PUSH3 0x461 JUMP JUMPDEST PUSH1 0x40 MLOAD PUSH1 0x1F DUP4 ADD PUSH1 0x1F NOT SWAP1 DUP2 AND PUSH1 0x3F ADD AND DUP2 ADD SWAP1 DUP3 DUP3 GT DUP2 DUP4 LT OR ISZERO PUSH3 0x4F7 JUMPI PUSH3 0x4F7 PUSH3 0x461 JUMP JUMPDEST DUP2 PUSH1 0x40 MSTORE DUP4 DUP2 MSTORE DUP7 PUSH1 0x20 DUP6 DUP9 ADD ADD GT ISZERO PUSH3 0x511 JUMPI PUSH1 0x0 DUP1 REVERT JUMPDEST PUSH3 0x524 DUP5 PUSH1 0x20 DUP4 ADD PUSH1 0x20 DUP10 ADD PUSH3 0x477 JUMP JUMPDEST SWAP7 SWAP6 POP POP POP POP POP POP JUMP JUMPDEST PUSH1 0x0 DUP1 PUSH1 0x0 DUP1 PUSH1 0x0 DUP1 PUSH1 0xC0 DUP8 DUP10 SUB SLT ISZERO PUSH3 0x548 JUMPI PUSH1 0x0 DUP1 REVERT JUMPDEST DUP7 MLOAD PUSH3 0x555 DUP2 PUSH3 0x448 JUMP JUMPDEST PUSH1 0x20 DUP9 ADD MLOAD SWAP1 SWAP7 POP PUSH3 0x568 DUP2 PUSH3 0x448 JUMP JUMPDEST PUSH1 0x40 DUP9 ADD MLOAD SWAP1 SWAP6 POP PUSH3 0x57B DUP2 PUSH3 0x448 JUMP JUMPDEST PUSH1 0x60 DUP9 ADD MLOAD SWAP1 SWAP5 POP PUSH3 0x58E DUP2 PUSH3 0x448 JUMP JUMPDEST PUSH1 0x80 DUP9 ADD MLOAD SWAP1 SWAP4 POP PUSH1 0x1 PUSH1 0x1 PUSH1 0x40 SHL SUB DUP1 DUP3 GT ISZERO PUSH3 0x5AC JUMPI PUSH1 0x0 DUP1 REVERT JUMPDEST PUSH3 0x5BA DUP11 DUP4 DUP12 ADD PUSH3 0x49D JUMP JUMPDEST SWAP4 POP PUSH1 0xA0 DUP10 ADD MLOAD SWAP2 POP DUP1 DUP3 GT ISZERO PUSH3 0x5D1 JUMPI PUSH1 0x0 DUP1 REVERT JUMPDEST POP PUSH3 0x5E0 DUP10 DUP3 DUP11 ADD PUSH3 0x49D JUMP JUMPDEST SWAP2 POP POP SWAP3 SWAP6 POP SWAP3 SWAP6 POP SWAP3 SWAP6 JUMP JUMPDEST PUSH1 0x1 DUP2 DUP2 SHR SWAP1 DUP3 AND DUP1 PUSH3 0x602 JUMPI PUSH1 0x7F DUP3 AND SWAP2 POP JUMPDEST PUSH1 0x20 DUP3 LT DUP2 SUB PUSH3 0x623 JUMPI PUSH4 0x4E487B71 PUSH1 0xE0 SHL PUSH1 0x0 MSTORE PUSH1 0x22 PUSH1 0x4 MSTORE PUSH1 0x24 PUSH1 0x0 REVERT JUMPDEST POP SWAP2 SWAP1 POP JUMP JUMPDEST PUSH1 0x1F DUP3 GT ISZERO PUSH3 0x677 JUMPI PUSH1 0x0 DUP2 DUP2 MSTORE PUSH1 0x20 DUP2 KECCAK256 PUSH1 0x1F DUP6 ADD PUSH1 0x5 SHR DUP2 ADD PUSH1 0x20 DUP7 LT ISZERO PUSH3 0x652 JUMPI POP DUP1 JUMPDEST PUSH1 0x1F DUP6 ADD PUSH1 0x5 SHR DUP3 ADD SWAP2 POP JUMPDEST DUP2 DUP2 LT ISZERO PUSH3 0x673 JUMPI DUP3 DUP2 SSTORE PUSH1 0x1 ADD PUSH3 0x65E JUMP JUMPDEST POP POP POP JUMPDEST POP POP POP JUMP JUMPDEST DUP2 MLOAD PUSH1 0x1 PUSH1 0x1 PUSH1 0x40 SHL SUB DUP2 GT ISZERO PUSH3 0x698 JUMPI PUSH3 0x698 PUSH3 0x461 JUMP JUMPDEST PUSH3 0x6B0 DUP2 PUSH3 0x6A9 DUP5 SLOAD PUSH3 0x5ED JUMP JUMPDEST DUP5 PUSH3 0x629 JUMP JUMPDEST PUSH1 0x20 DUP1 PUSH1 0x1F DUP4 GT PUSH1 0x1 DUP2 EQ PUSH3 0x6E8 JUMPI PUSH1 0x0 DUP5 ISZERO PUSH3 0x6CF JUMPI POP DUP6 DUP4 ADD MLOAD JUMPDEST PUSH1 0x0 NOT PUSH1 0x3 DUP7 SWAP1 SHL SHR NOT AND PUSH1 0x1 DUP6 SWAP1 SHL OR DUP6 SSTORE PUSH3 0x673 JUMP JUMPDEST PUSH1 0x0 DUP6 DUP2 MSTORE PUSH1 0x20 DUP2 KECCAK256 PUSH1 0x1F NOT DUP7 AND SWAP2 JUMPDEST DUP3 DUP2 LT ISZERO PUSH3 0x719 JUMPI DUP9 DUP7 ADD MLOAD DUP3 SSTORE SWAP5 DUP5 ADD SWAP5 PUSH1 0x1 SWAP1 SWAP2 ADD SWAP1 DUP5 ADD PUSH3 0x6F8 JUMP JUMPDEST POP DUP6 DUP3 LT ISZERO PUSH3 0x738 JUMPI DUP8 DUP6 ADD MLOAD PUSH1 0x0 NOT PUSH1 0x3 DUP9 SWAP1 SHL PUSH1 0xF8 AND SHR NOT AND DUP2 SSTORE JUMPDEST POP POP POP POP POP PUSH1 0x1 SWAP1 DUP2 SHL ADD SWAP1 SSTORE POP JUMP JUMPDEST PUSH1 0x0 PUSH1 0x20 DUP3 DUP5 SUB SLT ISZERO PUSH3 0x75B JUMPI PUSH1 0x0 DUP1 REVERT JUMPDEST DUP2 MLOAD PUSH3 0x768 DUP2 PUSH3 0x448 JUMP JUMPDEST SWAP4 SWAP3 POP POP POP JUMP JUMPDEST PUSH1 0x0 DUP3 MLOAD PUSH3 0x783 DUP2 DUP5 PUSH1 0x20 DUP8 ADD PUSH3 0x477 JUMP JUMPDEST SWAP2 SWAP1 SWAP2 ADD SWAP3 SWAP2 POP POP JUMP JUMPDEST PUSH1 0x0 PUSH1 0x20 DUP3 DUP5 SUB SLT ISZERO PUSH3 0x7A0 JUMPI PUSH1 0x0 DUP1 REVERT JUMPDEST POP MLOAD SWAP2 SWAP1 POP JUMP JUMPDEST PUSH1 0x80 MLOAD PUSH1 0xA0 MLOAD PUSH2 0x1FE7 PUSH3 0x80C PUSH1 0x0 CODECOPY PUSH1 0x0 PUSH2 0x860 ADD MSTORE PUSH1 0x0 DUP2 DUP2 PUSH2 0x360 ADD MSTORE DUP2 DUP2 PUSH2 0x5B1 ADD MSTORE DUP2 DUP2 PUSH2 0x95E ADD MSTORE DUP2 DUP2 PUSH2 0xB03 ADD MSTORE DUP2 DUP2 PUSH2 0xB46 ADD MSTORE DUP2 DUP2 PUSH2 0x126D ADD MSTORE DUP2 DUP2 PUSH2 0x1311 ADD MSTORE DUP2 DUP2 PUSH2 0x13FC ADD MSTORE DUP2 DUP2 PUSH2 0x1889 ADD MSTORE PUSH2 0x193B ADD MSTORE PUSH2 0x1FE7 PUSH1 0x0 RETURN INVALID PUSH1 0x80 PUSH1 0x40 MSTORE CALLVALUE DUP1 ISZERO PUSH2 0x10 JUMPI PUSH1 0x0 DUP1 REVERT JUMPDEST POP PUSH1 0x4 CALLDATASIZE LT PUSH2 0x23C JUMPI PUSH1 0x0 CALLDATALOAD PUSH1 0xE0 SHR DUP1 PUSH4 0x6E553F65 GT PUSH2 0x13B JUMPI DUP1 PUSH4 0xB3D7F6B9 GT PUSH2 0xB8 JUMPI DUP1 PUSH4 0xCE96CB77 GT PUSH2 0x7C JUMPI DUP1 PUSH4 0xCE96CB77 EQ PUSH2 0x4D0 JUMPI DUP1 PUSH4 0xD905777E EQ PUSH2 0x4E3 JUMPI DUP1 PUSH4 0xDD62ED3E EQ PUSH2 0x4F6 JUMPI DUP1 PUSH4 0xEF8B30F7 EQ PUSH2 0x4BD JUMPI DUP1 PUSH4 0xF2FDE38B EQ PUSH2 0x52F JUMPI PUSH1 0x0 DUP1 REVERT JUMPDEST DUP1 PUSH4 0xB3D7F6B9 EQ PUSH2 0x484 JUMPI DUP1 PUSH4 0xB460AF94 EQ PUSH2 0x497 JUMPI DUP1 PUSH4 0xBA087652 EQ PUSH2 0x4AA JUMPI DUP1 PUSH4 0xC63D75B6 EQ PUSH2 0x384 JUMPI DUP1 PUSH4 0xC6E6F592 EQ PUSH2 0x4BD JUMPI PUSH1 0x0 DUP1 REVERT JUMPDEST DUP1 PUSH4 0x94BF804D GT PUSH2 0xFF JUMPI DUP1 PUSH4 0x94BF804D EQ PUSH2 0x430 JUMPI DUP1 PUSH4 0x95D89B41 EQ PUSH2 0x443 JUMPI DUP1 PUSH4 0xA6CC1CEC EQ PUSH2 0x44B JUMPI DUP1 PUSH4 0xA8C62E76 EQ PUSH2 0x45E JUMPI DUP1 PUSH4 0xA9059CBB EQ PUSH2 0x471 JUMPI PUSH1 0x0 DUP1 REVERT JUMPDEST DUP1 PUSH4 0x6E553F65 EQ PUSH2 0x3C8 JUMPI DUP1 PUSH4 0x70A08231 EQ PUSH2 0x3DB JUMPI DUP1 PUSH4 0x715018A6 EQ PUSH2 0x404 JUMPI DUP1 PUSH4 0x88F973F0 EQ PUSH2 0x40C JUMPI DUP1 PUSH4 0x8DA5CB5B EQ PUSH2 0x41F JUMPI PUSH1 0x0 DUP1 REVERT JUMPDEST DUP1 PUSH4 0x23B872DD GT PUSH2 0x1C9 JUMPI DUP1 PUSH4 0x402D267D GT PUSH2 0x18D JUMPI DUP1 PUSH4 0x402D267D EQ PUSH2 0x384 JUMPI DUP1 PUSH4 0x4641257D EQ PUSH2 0x399 JUMPI DUP1 PUSH4 0x4CDAD506 EQ PUSH2 0x27A JUMPI DUP1 PUSH4 0x5C975ABB EQ PUSH2 0x3A1 JUMPI DUP1 PUSH4 0x6295042D EQ PUSH2 0x3B5 JUMPI PUSH1 0x0 DUP1 REVERT JUMPDEST DUP1 PUSH4 0x23B872DD EQ PUSH2 0x2F3 JUMPI DUP1 PUSH4 0x313CE567 EQ PUSH2 0x306 JUMPI DUP1 PUSH4 0x33A100CA EQ PUSH2 0x320 JUMPI DUP1 PUSH4 0x38AF3EED EQ PUSH2 0x333 JUMPI DUP1 PUSH4 0x38D52E0F EQ PUSH2 0x35E JUMPI PUSH1 0x0 DUP1 REVERT JUMPDEST DUP1 PUSH4 0x95EA7B3 GT PUSH2 0x210 JUMPI DUP1 PUSH4 0x95EA7B3 EQ PUSH2 0x28D JUMPI DUP1 PUSH4 0xA28A477 EQ PUSH2 0x2B0 JUMPI DUP1 PUSH4 0x16C38B3C EQ PUSH2 0x2C3 JUMPI DUP1 PUSH4 0x18160DDD EQ PUSH2 0x2D8 JUMPI DUP1 PUSH4 0x1C31F710 EQ PUSH2 0x2E0 JUMPI PUSH1 0x0 DUP1 REVERT JUMPDEST DUP1 PUSH3 0xB37044 EQ PUSH2 0x241 JUMPI DUP1 PUSH4 0x1E1D114 EQ PUSH2 0x25D JUMPI DUP1 PUSH4 0x6FDDE03 EQ PUSH2 0x265 JUMPI DUP1 PUSH4 0x7A2D13A EQ PUSH2 0x27A JUMPI JUMPDEST PUSH1 0x0 DUP1 REVERT JUMPDEST PUSH2 0x24A PUSH1 0xA SLOAD DUP2 JUMP JUMPDEST PUSH1 0x40 MLOAD SWAP1 DUP2 MSTORE PUSH1 0x20 ADD JUMPDEST PUSH1 0x40 MLOAD DUP1 SWAP2 SUB SWAP1 RETURN JUMPDEST PUSH2 0x24A PUSH2 0x542 JUMP JUMPDEST PUSH2 0x26D PUSH2 0x649 JUMP JUMPDEST PUSH1 0x40 MLOAD PUSH2 0x254 SWAP2 SWAP1 PUSH2 0x1BB4 JUMP JUMPDEST PUSH2 0x24A PUSH2 0x288 CALLDATASIZE PUSH1 0x4 PUSH2 0x1C02 JUMP JUMPDEST PUSH2 0x6DB JUMP JUMPDEST PUSH2 0x2A0 PUSH2 0x29B CALLDATASIZE PUSH1 0x4 PUSH2 0x1C30 JUMP JUMPDEST PUSH2 0x6EE JUMP JUMPDEST PUSH1 0x40 MLOAD SWAP1 ISZERO ISZERO DUP2 MSTORE PUSH1 0x20 ADD PUSH2 0x254 JUMP JUMPDEST PUSH2 0x24A PUSH2 0x2BE CALLDATASIZE PUSH1 0x4 PUSH2 0x1C02 JUMP JUMPDEST PUSH2 0x706 JUMP JUMPDEST PUSH2 0x2D6 PUSH2 0x2D1 CALLDATASIZE PUSH1 0x4 PUSH2 0x1C5C JUMP JUMPDEST PUSH2 0x713 JUMP JUMPDEST STOP JUMPDEST PUSH1 0x2 SLOAD PUSH2 0x24A JUMP JUMPDEST PUSH2 0x2D6 PUSH2 0x2EE CALLDATASIZE PUSH1 0x4 PUSH2 0x1C7E JUMP JUMPDEST PUSH2 0x773 JUMP JUMPDEST PUSH2 0x2A0 PUSH2 0x301 CALLDATASIZE PUSH1 0x4 PUSH2 0x1C9B JUMP JUMPDEST PUSH2 0x832 JUMP JUMPDEST PUSH2 0x30E PUSH2 0x858 JUMP JUMPDEST PUSH1 0x40 MLOAD PUSH1 0xFF SWAP1 SWAP2 AND DUP2 MSTORE PUSH1 0x20 ADD PUSH2 0x254 JUMP JUMPDEST PUSH2 0x2D6 PUSH2 0x32E CALLDATASIZE PUSH1 0x4 PUSH2 0x1C7E JUMP JUMPDEST PUSH2 0x884 JUMP JUMPDEST PUSH1 0x9 SLOAD PUSH2 0x346 SWAP1 PUSH1 0x1 PUSH1 0x1 PUSH1 0xA0 SHL SUB AND DUP2 JUMP JUMPDEST PUSH1 0x40 MLOAD PUSH1 0x1 PUSH1 0x1 PUSH1 0xA0 SHL SUB SWAP1 SWAP2 AND DUP2 MSTORE PUSH1 0x20 ADD PUSH2 0x254 JUMP JUMPDEST PUSH32 0x0 PUSH2 0x346 JUMP JUMPDEST PUSH2 0x24A PUSH2 0x392 CALLDATASIZE PUSH1 0x4 PUSH2 0x1C7E JUMP JUMPDEST POP PUSH1 0x0 NOT SWAP1 JUMP JUMPDEST PUSH2 0x2D6 PUSH2 0xA1D JUMP JUMPDEST PUSH1 0x9 SLOAD PUSH2 0x2A0 SWAP1 PUSH1 0x1 PUSH1 0xA0 SHL SWAP1 DIV PUSH1 0xFF AND DUP2 JUMP JUMPDEST PUSH2 0x2D6 PUSH2 0x3C3 CALLDATASIZE PUSH1 0x4 PUSH2 0x1C02 JUMP JUMPDEST PUSH2 0xC36 JUMP JUMPDEST PUSH2 0x24A PUSH2 0x3D6 CALLDATASIZE PUSH1 0x4 PUSH2 0x1CDC JUMP JUMPDEST PUSH2 0xD3D JUMP JUMPDEST PUSH2 0x24A PUSH2 0x3E9 CALLDATASIZE PUSH1 0x4 PUSH2 0x1C7E JUMP JUMPDEST PUSH1 0x1 PUSH1 0x1 PUSH1 0xA0 SHL SUB AND PUSH1 0x0 SWAP1 DUP2 MSTORE PUSH1 0x20 DUP2 SWAP1 MSTORE PUSH1 0x40 SWAP1 KECCAK256 SLOAD SWAP1 JUMP JUMPDEST PUSH2 0x2D6 PUSH2 0xD63 JUMP JUMPDEST PUSH1 0x8 SLOAD PUSH2 0x346 SWAP1 PUSH1 0x1 PUSH1 0x1 PUSH1 0xA0 SHL SUB AND DUP2 JUMP JUMPDEST PUSH1 0x5 SLOAD PUSH1 0x1 PUSH1 0x1 PUSH1 0xA0 SHL SUB AND PUSH2 0x346 JUMP JUMPDEST PUSH2 0x24A PUSH2 0x43E CALLDATASIZE PUSH1 0x4 PUSH2 0x1CDC JUMP JUMPDEST PUSH2 0xD75 JUMP JUMPDEST PUSH2 0x26D PUSH2 0xD93 JUMP JUMPDEST PUSH2 0x2D6 PUSH2 0x459 CALLDATASIZE PUSH1 0x4 PUSH2 0x1C7E JUMP JUMPDEST PUSH2 0xDA2 JUMP JUMPDEST PUSH1 0x7 SLOAD PUSH2 0x346 SWAP1 PUSH1 0x1 PUSH1 0x1 PUSH1 0xA0 SHL SUB AND DUP2 JUMP JUMPDEST PUSH2 0x2A0 PUSH2 0x47F CALLDATASIZE PUSH1 0x4 PUSH2 0x1C30 JUMP JUMPDEST PUSH2 0xE56 JUMP JUMPDEST PUSH2 0x24A PUSH2 0x492 CALLDATASIZE PUSH1 0x4 PUSH2 0x1C02 JUMP JUMPDEST PUSH2 0xE64 JUMP JUMPDEST PUSH2 0x24A PUSH2 0x4A5 CALLDATASIZE PUSH1 0x4 PUSH2 0x1D0C JUMP JUMPDEST PUSH2 0xE71 JUMP JUMPDEST PUSH2 0x24A PUSH2 0x4B8 CALLDATASIZE PUSH1 0x4 PUSH2 0x1D0C JUMP JUMPDEST PUSH2 0xEC9 JUMP JUMPDEST PUSH2 0x24A PUSH2 0x4CB CALLDATASIZE PUSH1 0x4 PUSH2 0x1C02 JUMP JUMPDEST PUSH2 0xF18 JUMP JUMPDEST PUSH2 0x24A PUSH2 0x4DE CALLDATASIZE PUSH1 0x4 PUSH2 0x1C7E JUMP JUMPDEST PUSH2 0xF25 JUMP JUMPDEST PUSH2 0x24A PUSH2 0x4F1 CALLDATASIZE PUSH1 0x4 PUSH2 0x1C7E JUMP JUMPDEST PUSH2 0xF49 JUMP JUMPDEST PUSH2 0x24A PUSH2 0x504 CALLDATASIZE PUSH1 0x4 PUSH2 0x1D4E JUMP JUMPDEST PUSH1 0x1 PUSH1 0x1 PUSH1 0xA0 SHL SUB SWAP2 DUP3 AND PUSH1 0x0 SWAP1 DUP2 MSTORE PUSH1 0x1 PUSH1 0x20 SWAP1 DUP2 MSTORE PUSH1 0x40 DUP1 DUP4 KECCAK256 SWAP4 SWAP1 SWAP5 AND DUP3 MSTORE SWAP2 SWAP1 SWAP2 MSTORE KECCAK256 SLOAD SWAP1 JUMP JUMPDEST PUSH2 0x2D6 PUSH2 0x53D CALLDATASIZE PUSH1 0x4 PUSH2 0x1C7E JUMP JUMPDEST PUSH2 0xF67 JUMP JUMPDEST PUSH1 0x7 SLOAD PUSH1 0x40 DUP1 MLOAD PUSH3 0x787445 PUSH1 0xE2 SHL DUP2 MSTORE SWAP1 MLOAD PUSH1 0x0 SWAP3 PUSH1 0x1 PUSH1 0x1 PUSH1 0xA0 SHL SUB AND SWAP2 PUSH4 0x1E1D114 SWAP2 PUSH1 0x4 DUP1 DUP4 ADD SWAP3 PUSH1 0x20 SWAP3 SWAP2 SWAP1 DUP3 SWAP1 SUB ADD DUP2 DUP7 GAS STATICCALL ISZERO DUP1 ISZERO PUSH2 0x58B JUMPI RETURNDATASIZE PUSH1 0x0 DUP1 RETURNDATACOPY RETURNDATASIZE PUSH1 0x0 REVERT JUMPDEST POP POP POP POP PUSH1 0x40 MLOAD RETURNDATASIZE PUSH1 0x1F NOT PUSH1 0x1F DUP3 ADD AND DUP3 ADD DUP1 PUSH1 0x40 MSTORE POP DUP2 ADD SWAP1 PUSH2 0x5AF SWAP2 SWAP1 PUSH2 0x1D7C JUMP JUMPDEST PUSH32 0x0 PUSH1 0x40 MLOAD PUSH4 0x70A08231 PUSH1 0xE0 SHL DUP2 MSTORE ADDRESS PUSH1 0x4 DUP3 ADD MSTORE PUSH1 0x1 PUSH1 0x1 PUSH1 0xA0 SHL SUB SWAP2 SWAP1 SWAP2 AND SWAP1 PUSH4 0x70A08231 SWAP1 PUSH1 0x24 ADD PUSH1 0x20 PUSH1 0x40 MLOAD DUP1 DUP4 SUB DUP2 DUP7 GAS STATICCALL ISZERO DUP1 ISZERO PUSH2 0x616 JUMPI RETURNDATASIZE PUSH1 0x0 DUP1 RETURNDATACOPY RETURNDATASIZE PUSH1 0x0 REVERT JUMPDEST POP POP POP POP PUSH1 0x40 MLOAD RETURNDATASIZE PUSH1 0x1F NOT PUSH1 0x1F DUP3 ADD AND DUP3 ADD DUP1 PUSH1 0x40 MSTORE POP DUP2 ADD SWAP1 PUSH2 0x63A SWAP2 SWAP1 PUSH2 0x1D7C JUMP JUMPDEST PUSH2 0x644 SWAP2 SWAP1 PUSH2 0x1DAB JUMP JUMPDEST SWAP1 POP SWAP1 JUMP JUMPDEST PUSH1 0x60 PUSH1 0x3 DUP1 SLOAD PUSH2 0x658 SWAP1 PUSH2 0x1DBE JUMP JUMPDEST DUP1 PUSH1 0x1F ADD PUSH1 0x20 DUP1 SWAP2 DIV MUL PUSH1 0x20 ADD PUSH1 0x40 MLOAD SWAP1 DUP2 ADD PUSH1 0x40 MSTORE DUP1 SWAP3 SWAP2 SWAP1 DUP2 DUP2 MSTORE PUSH1 0x20 ADD DUP3 DUP1 SLOAD PUSH2 0x684 SWAP1 PUSH2 0x1DBE JUMP JUMPDEST DUP1 ISZERO PUSH2 0x6D1 JUMPI DUP1 PUSH1 0x1F LT PUSH2 0x6A6 JUMPI PUSH2 0x100 DUP1 DUP4 SLOAD DIV MUL DUP4 MSTORE SWAP2 PUSH1 0x20 ADD SWAP2 PUSH2 0x6D1 JUMP JUMPDEST DUP3 ADD SWAP2 SWAP1 PUSH1 0x0 MSTORE PUSH1 0x20 PUSH1 0x0 KECCAK256 SWAP1 JUMPDEST DUP2 SLOAD DUP2 MSTORE SWAP1 PUSH1 0x1 ADD SWAP1 PUSH1 0x20 ADD DUP1 DUP4 GT PUSH2 0x6B4 JUMPI DUP3 SWAP1 SUB PUSH1 0x1F AND DUP3 ADD SWAP2 JUMPDEST POP POP POP POP POP SWAP1 POP SWAP1 JUMP JUMPDEST PUSH1 0x0 PUSH2 0x6E8 DUP3 PUSH1 0x0 PUSH2 0xFA5 JUMP JUMPDEST SWAP3 SWAP2 POP POP JUMP JUMPDEST PUSH1 0x0 CALLER PUSH2 0x6FC DUP2 DUP6 DUP6 PUSH2 0xFDF JUMP JUMPDEST POP PUSH1 0x1 SWAP4 SWAP3 POP POP POP JUMP JUMPDEST PUSH1 0x0 PUSH2 0x6E8 DUP3 PUSH1 0x1 PUSH2 0xFF1 JUMP JUMPDEST PUSH2 0x71B PUSH2 0x1021 JUMP JUMPDEST PUSH1 0x9 DUP1 SLOAD DUP3 ISZERO ISZERO PUSH1 0x1 PUSH1 0xA0 SHL MUL PUSH1 0xFF PUSH1 0xA0 SHL NOT SWAP1 SWAP2 AND OR SWAP1 SSTORE PUSH1 0x40 MLOAD PUSH32 0xE2FB031EE032DC02D8011DC50B816EB450CF856ABD8261680DAC74F72165BD2 SWAP1 PUSH2 0x768 SWAP1 DUP4 ISZERO ISZERO DUP2 MSTORE PUSH1 0x20 ADD SWAP1 JUMP JUMPDEST PUSH1 0x40 MLOAD DUP1 SWAP2 SUB SWAP1 LOG1 POP JUMP JUMPDEST PUSH2 0x77B PUSH2 0x1021 JUMP JUMPDEST PUSH1 0x1 PUSH1 0x1 PUSH1 0xA0 SHL SUB DUP2 AND PUSH2 0x7E8 JUMPI PUSH1 0x40 MLOAD PUSH3 0x461BCD PUSH1 0xE5 SHL DUP2 MSTORE PUSH1 0x20 PUSH1 0x4 DUP3 ADD MSTORE PUSH1 0x29 PUSH1 0x24 DUP3 ADD MSTORE PUSH32 0x5969656C6434476F6F645661756C743A207A65726F2062656E65666963696172 PUSH1 0x44 DUP3 ADD MSTORE PUSH9 0x792061646472657373 PUSH1 0xB8 SHL PUSH1 0x64 DUP3 ADD MSTORE PUSH1 0x84 ADD JUMPDEST PUSH1 0x40 MLOAD DUP1 SWAP2 SUB SWAP1 REVERT JUMPDEST PUSH1 0x9 DUP1 SLOAD PUSH1 0x1 PUSH1 0x1 PUSH1 0xA0 SHL SUB NOT AND PUSH1 0x1 PUSH1 0x1 PUSH1 0xA0 SHL SUB DUP4 AND SWAP1 DUP2 OR SWAP1 SWAP2 SSTORE PUSH1 0x40 MLOAD PUSH32 0x373C72EFABE4EF3E552FF77838BE729F3BC3D8C586DF0012902D1BAA2377FA1D SWAP1 PUSH1 0x0 SWAP1 LOG2 POP JUMP JUMPDEST PUSH1 0x0 CALLER PUSH2 0x840 DUP6 DUP3 DUP6 PUSH2 0x104E JUMP JUMPDEST PUSH2 0x84B DUP6 DUP6 DUP6 PUSH2 0x10BA JUMP JUMPDEST PUSH1 0x1 SWAP2 POP POP JUMPDEST SWAP4 SWAP3 POP POP POP JUMP JUMPDEST PUSH1 0x0 PUSH2 0x644 DUP2 PUSH32 0x0 PUSH2 0x1DF8 JUMP JUMPDEST PUSH2 0x88C PUSH2 0x1021 JUMP JUMPDEST PUSH1 0x1 PUSH1 0x1 PUSH1 0xA0 SHL SUB DUP2 AND PUSH2 0x8F1 JUMPI PUSH1 0x40 MLOAD PUSH3 0x461BCD PUSH1 0xE5 SHL DUP2 MSTORE PUSH1 0x20 PUSH1 0x4 DUP3 ADD MSTORE PUSH1 0x26 PUSH1 0x24 DUP3 ADD MSTORE PUSH32 0x5969656C6434476F6F645661756C743A207A65726F2073747261746567792061 PUSH1 0x44 DUP3 ADD MSTORE PUSH6 0x646472657373 PUSH1 0xD0 SHL PUSH1 0x64 DUP3 ADD MSTORE PUSH1 0x84 ADD PUSH2 0x7DF JUMP JUMPDEST DUP1 PUSH1 0x1 PUSH1 0x1 PUSH1 0xA0 SHL SUB AND PUSH4 0x38D52E0F PUSH1 0x40 MLOAD DUP2 PUSH4 0xFFFFFFFF AND PUSH1 0xE0 SHL DUP2 MSTORE PUSH1 0x4 ADD PUSH1 0x20 PUSH1 0x40 MLOAD DUP1 DUP4 SUB DUP2 DUP7 GAS STATICCALL ISZERO DUP1 ISZERO PUSH2 0x92F JUMPI RETURNDATASIZE PUSH1 0x0 DUP1 RETURNDATACOPY RETURNDATASIZE PUSH1 0x0 REVERT JUMPDEST POP POP POP POP PUSH1 0x40 MLOAD RETURNDATASIZE PUSH1 0x1F NOT PUSH1 0x1F DUP3 ADD AND DUP3 ADD DUP1 PUSH1 0x40 MSTORE POP DUP2 ADD SWAP1 PUSH2 0x953 SWAP2 SWAP1 PUSH2 0x1E11 JUMP JUMPDEST PUSH1 0x1 PUSH1 0x1 PUSH1 0xA0 SHL SUB AND PUSH32 0x0 PUSH1 0x1 PUSH1 0x1 PUSH1 0xA0 SHL SUB AND EQ PUSH2 0x9D3 JUMPI PUSH1 0x40 MLOAD PUSH3 0x461BCD PUSH1 0xE5 SHL DUP2 MSTORE PUSH1 0x20 PUSH1 0x4 DUP3 ADD MSTORE PUSH1 0x1F PUSH1 0x24 DUP3 ADD MSTORE PUSH32 0x5969656C6434476F6F645661756C743A206173736574206D69736D6174636800 PUSH1 0x44 DUP3 ADD MSTORE PUSH1 0x64 ADD PUSH2 0x7DF JUMP JUMPDEST PUSH1 0x7 DUP1 SLOAD PUSH1 0x1 PUSH1 0x1 PUSH1 0xA0 SHL SUB NOT AND PUSH1 0x1 PUSH1 0x1 PUSH1 0xA0 SHL SUB DUP4 AND SWAP1 DUP2 OR SWAP1 SWAP2 SSTORE PUSH1 0x40 MLOAD PUSH32 0xAFD1CDC355E15BFC9038294BE1C6203CE953704FDA8C991BEBE78DDD4D5420D1 SWAP1 PUSH1 0x0 SWAP1 LOG2 POP JUMP JUMPDEST PUSH2 0xA25 PUSH2 0x1119 JUMP JUMPDEST PUSH1 0x9 SLOAD PUSH1 0x1 PUSH1 0xA0 SHL SWAP1 DIV PUSH1 0xFF AND ISZERO PUSH2 0xA79 JUMPI PUSH1 0x40 MLOAD PUSH3 0x461BCD PUSH1 0xE5 SHL DUP2 MSTORE PUSH1 0x20 PUSH1 0x4 DUP3 ADD MSTORE PUSH1 0x17 PUSH1 0x24 DUP3 ADD MSTORE PUSH23 0x165A595B190D11DBDBD915985D5B1D0E881C185D5CD959 PUSH1 0x4A SHL PUSH1 0x44 DUP3 ADD MSTORE PUSH1 0x64 ADD PUSH2 0x7DF JUMP JUMPDEST PUSH1 0x7 SLOAD PUSH1 0x40 DUP1 MLOAD PUSH4 0x4641257D PUSH1 0xE0 SHL DUP2 MSTORE SWAP1 MLOAD PUSH1 0x0 SWAP3 PUSH1 0x1 PUSH1 0x1 PUSH1 0xA0 SHL SUB AND SWAP2 PUSH4 0x4641257D SWAP2 PUSH1 0x4 DUP1 DUP4 ADD SWAP3 PUSH1 0x20 SWAP3 SWAP2 SWAP1 DUP3 SWAP1 SUB ADD DUP2 DUP8 DUP8 GAS CALL ISZERO DUP1 ISZERO PUSH2 0xAC4 JUMPI RETURNDATASIZE PUSH1 0x0 DUP1 RETURNDATACOPY RETURNDATASIZE PUSH1 0x0 REVERT JUMPDEST POP POP POP POP PUSH1 0x40 MLOAD RETURNDATASIZE PUSH1 0x1F NOT PUSH1 0x1F DUP3 ADD AND DUP3 ADD DUP1 PUSH1 0x40 MSTORE POP DUP2 ADD SWAP1 PUSH2 0xAE8 SWAP2 SWAP1 PUSH2 0x1D7C JUMP JUMPDEST SWAP1 POP DUP1 ISZERO PUSH2 0xC29 JUMPI PUSH1 0x8 SLOAD PUSH2 0xB33 SWAP1 PUSH1 0x1 PUSH1 0x1 PUSH1 0xA0 SHL SUB AND DUP3 PUSH32 0x0 JUMPDEST PUSH1 0x1 PUSH1 0x1 PUSH1 0xA0 SHL SUB AND SWAP2 SWAP1 PUSH2 0x1143 JUMP JUMPDEST PUSH1 0x8 SLOAD PUSH1 0x1 PUSH1 0x1 PUSH1 0xA0 SHL SUB AND PUSH4 0x386BC05A PUSH32 0x0 PUSH1 0x9 SLOAD PUSH1 0x40 MLOAD PUSH1 0xE0 DUP5 SWAP1 SHL PUSH1 0x1 PUSH1 0x1 PUSH1 0xE0 SHL SUB NOT AND DUP2 MSTORE PUSH1 0x1 PUSH1 0x1 PUSH1 0xA0 SHL SUB SWAP3 DUP4 AND PUSH1 0x4 DUP3 ADD MSTORE SWAP2 AND PUSH1 0x24 DUP3 ADD MSTORE PUSH1 0x44 DUP2 ADD DUP5 SWAP1 MSTORE PUSH1 0x64 ADD PUSH1 0x0 PUSH1 0x40 MLOAD DUP1 DUP4 SUB DUP2 PUSH1 0x0 DUP8 DUP1 EXTCODESIZE ISZERO DUP1 ISZERO PUSH2 0xBB7 JUMPI PUSH1 0x0 DUP1 REVERT JUMPDEST POP GAS CALL ISZERO DUP1 ISZERO PUSH2 0xBCB JUMPI RETURNDATASIZE PUSH1 0x0 DUP1 RETURNDATACOPY RETURNDATASIZE PUSH1 0x0 REVERT JUMPDEST POP POP POP POP DUP1 PUSH1 0xA PUSH1 0x0 DUP3 DUP3 SLOAD PUSH2 0xBE1 SWAP2 SWAP1 PUSH2 0x1DAB JUMP JUMPDEST SWAP1 SWAP2 SSTORE POP POP PUSH1 0x9 SLOAD PUSH1 0x40 MLOAD DUP3 DUP2 MSTORE PUSH1 0x1 PUSH1 0x1 PUSH1 0xA0 SHL SUB SWAP1 SWAP2 AND SWAP1 PUSH32 0x5ECB395FC35457DD837C7B6D8B82F53844C0ACB2898D6C8F4261C5BC4DBD0350 SWAP1 PUSH1 0x20 ADD PUSH1 0x40 MLOAD DUP1 SWAP2 SUB SWAP1 LOG2 JUMPDEST POP PUSH2 0xC34 PUSH1 0x1 PUSH1 0x6 SSTORE JUMP JUMPDEST JUMP JUMPDEST PUSH2 0xC3E PUSH2 0x1021 JUMP JUMPDEST PUSH1 0x0 DUP2 GT PUSH2 0xC8E JUMPI PUSH1 0x40 MLOAD PUSH3 0x461BCD PUSH1 0xE5 SHL DUP2 MSTORE PUSH1 0x20 PUSH1 0x4 DUP3 ADD MSTORE PUSH1 0x1C PUSH1 0x24 DUP3 ADD MSTORE PUSH32 0x5969656C6434476F6F645661756C743A207A65726F20616D6F756E7400000000 PUSH1 0x44 DUP3 ADD MSTORE PUSH1 0x64 ADD PUSH2 0x7DF JUMP JUMPDEST PUSH1 0x7 SLOAD PUSH1 0x40 MLOAD PUSH4 0x8CA17995 PUSH1 0xE0 SHL DUP2 MSTORE PUSH1 0x4 DUP2 ADD DUP4 SWAP1 MSTORE PUSH1 0x0 SWAP2 PUSH1 0x1 PUSH1 0x1 PUSH1 0xA0 SHL SUB AND SWAP1 PUSH4 0x8CA17995 SWAP1 PUSH1 0x24 ADD PUSH1 0x20 PUSH1 0x40 MLOAD DUP1 DUP4 SUB DUP2 PUSH1 0x0 DUP8 GAS CALL ISZERO DUP1 ISZERO PUSH2 0xCDA JUMPI RETURNDATASIZE PUSH1 0x0 DUP1 RETURNDATACOPY RETURNDATASIZE PUSH1 0x0 REVERT JUMPDEST POP POP POP POP PUSH1 0x40 MLOAD RETURNDATASIZE PUSH1 0x1F NOT PUSH1 0x1F DUP3 ADD AND DUP3 ADD DUP1 PUSH1 0x40 MSTORE POP DUP2 ADD SWAP1 PUSH2 0xCFE SWAP2 SWAP1 PUSH2 0x1D7C JUMP JUMPDEST SWAP1 POP PUSH32 0x8DAC4DE18F55E97D80A8BE7D07896F47A1E3893AF0D492214E6D0A93FD868F4B DUP2 PUSH1 0x40 MLOAD PUSH2 0xD31 SWAP2 DUP2 MSTORE PUSH1 0x20 ADD SWAP1 JUMP JUMPDEST PUSH1 0x40 MLOAD DUP1 SWAP2 SUB SWAP1 LOG1 POP POP JUMP JUMPDEST PUSH1 0x0 PUSH1 0x0 NOT PUSH1 0x0 PUSH2 0xD4D DUP6 PUSH2 0xF18 JUMP JUMPDEST SWAP1 POP PUSH2 0xD5B CALLER DUP6 DUP8 DUP5 PUSH2 0x1201 JUMP JUMPDEST SWAP5 SWAP4 POP POP POP POP JUMP JUMPDEST PUSH2 0xD6B PUSH2 0x1021 JUMP JUMPDEST PUSH2 0xC34 PUSH1 0x0 PUSH2 0x139E JUMP JUMPDEST PUSH1 0x0 PUSH1 0x0 NOT PUSH1 0x0 PUSH2 0xD85 DUP6 PUSH2 0xE64 JUMP JUMPDEST SWAP1 POP PUSH2 0xD5B CALLER DUP6 DUP4 DUP9 PUSH2 0x1201 JUMP JUMPDEST PUSH1 0x60 PUSH1 0x4 DUP1 SLOAD PUSH2 0x658 SWAP1 PUSH2 0x1DBE JUMP JUMPDEST PUSH2 0xDAA PUSH2 0x1021 JUMP JUMPDEST PUSH1 0x1 PUSH1 0x1 PUSH1 0xA0 SHL SUB DUP2 AND PUSH2 0xE0C JUMPI PUSH1 0x40 MLOAD PUSH3 0x461BCD PUSH1 0xE5 SHL DUP2 MSTORE PUSH1 0x20 PUSH1 0x4 DUP3 ADD MSTORE PUSH1 0x24 DUP1 DUP3 ADD MSTORE PUSH32 0x5969656C6434476F6F645661756C743A207A65726F20726F7574657220616464 PUSH1 0x44 DUP3 ADD MSTORE PUSH4 0x72657373 PUSH1 0xE0 SHL PUSH1 0x64 DUP3 ADD MSTORE PUSH1 0x84 ADD PUSH2 0x7DF JUMP JUMPDEST PUSH1 0x8 DUP1 SLOAD PUSH1 0x1 PUSH1 0x1 PUSH1 0xA0 SHL SUB NOT AND PUSH1 0x1 PUSH1 0x1 PUSH1 0xA0 SHL SUB DUP4 AND SWAP1 DUP2 OR SWAP1 SWAP2 SSTORE PUSH1 0x40 MLOAD PUSH32 0x2F40C283C1F4A3E25C690762020D50B7DD16BBF2C6CBC01045A5BA4911E77AA3 SWAP1 PUSH1 0x0 SWAP1 LOG2 POP JUMP JUMPDEST PUSH1 0x0 CALLER PUSH2 0x6FC DUP2 DUP6 DUP6 PUSH2 0x10BA JUMP JUMPDEST PUSH1 0x0 PUSH2 0x6E8 DUP3 PUSH1 0x1 PUSH2 0xFA5 JUMP JUMPDEST PUSH1 0x0 DUP1 PUSH2 0xE7D DUP4 PUSH2 0xF25 JUMP JUMPDEST SWAP1 POP DUP1 DUP6 GT ISZERO PUSH2 0xEA6 JUMPI DUP3 DUP6 DUP3 PUSH1 0x40 MLOAD PUSH4 0x3FA733BB PUSH1 0xE2 SHL DUP2 MSTORE PUSH1 0x4 ADD PUSH2 0x7DF SWAP4 SWAP3 SWAP2 SWAP1 PUSH2 0x1E2E JUMP JUMPDEST PUSH1 0x0 PUSH2 0xEB1 DUP7 PUSH2 0x706 JUMP JUMPDEST SWAP1 POP PUSH2 0xEC0 CALLER DUP7 DUP7 DUP10 DUP6 PUSH2 0x13F0 JUMP JUMPDEST SWAP6 SWAP5 POP POP POP POP POP JUMP JUMPDEST PUSH1 0x0 DUP1 PUSH2 0xED5 DUP4 PUSH2 0xF49 JUMP JUMPDEST SWAP1 POP DUP1 DUP6 GT ISZERO PUSH2 0xEFE JUMPI DUP3 DUP6 DUP3 PUSH1 0x40 MLOAD PUSH4 0x2E52AFBB PUSH1 0xE2 SHL DUP2 MSTORE PUSH1 0x4 ADD PUSH2 0x7DF SWAP4 SWAP3 SWAP2 SWAP1 PUSH2 0x1E2E JUMP JUMPDEST PUSH1 0x0 PUSH2 0xF09 DUP7 PUSH2 0x6DB JUMP JUMPDEST SWAP1 POP PUSH2 0xEC0 CALLER DUP7 DUP7 DUP5 DUP11 PUSH2 0x13F0 JUMP JUMPDEST PUSH1 0x0 PUSH2 0x6E8 DUP3 PUSH1 0x0 PUSH2 0xFF1 JUMP JUMPDEST PUSH1 0x1 PUSH1 0x1 PUSH1 0xA0 SHL SUB DUP2 AND PUSH1 0x0 SWAP1 DUP2 MSTORE PUSH1 0x20 DUP2 SWAP1 MSTORE PUSH1 0x40 DUP2 KECCAK256 SLOAD PUSH2 0x6E8 SWAP1 PUSH1 0x0 PUSH2 0xFA5 JUMP JUMPDEST PUSH1 0x1 PUSH1 0x1 PUSH1 0xA0 SHL SUB DUP2 AND PUSH1 0x0 SWAP1 DUP2 MSTORE PUSH1 0x20 DUP2 SWAP1 MSTORE PUSH1 0x40 DUP2 KECCAK256 SLOAD PUSH2 0x6E8 JUMP JUMPDEST PUSH2 0xF6F PUSH2 0x1021 JUMP JUMPDEST PUSH1 0x1 PUSH1 0x1 PUSH1 0xA0 SHL SUB DUP2 AND PUSH2 0xF99 JUMPI PUSH1 0x40 MLOAD PUSH4 0x1E4FBDF7 PUSH1 0xE0 SHL DUP2 MSTORE PUSH1 0x0 PUSH1 0x4 DUP3 ADD MSTORE PUSH1 0x24 ADD PUSH2 0x7DF JUMP JUMPDEST PUSH2 0xFA2 DUP2 PUSH2 0x139E JUMP JUMPDEST POP JUMP JUMPDEST PUSH1 0x0 PUSH2 0x851 PUSH2 0xFB2 PUSH2 0x542 JUMP JUMPDEST PUSH2 0xFBD SWAP1 PUSH1 0x1 PUSH2 0x1DAB JUMP JUMPDEST PUSH2 0xFC9 PUSH1 0x0 PUSH1 0xA PUSH2 0x1F33 JUMP JUMPDEST PUSH1 0x2 SLOAD PUSH2 0xFD6 SWAP2 SWAP1 PUSH2 0x1DAB JUMP JUMPDEST DUP6 SWAP2 SWAP1 DUP6 PUSH2 0x1594 JUMP JUMPDEST PUSH2 0xFEC DUP4 DUP4 DUP4 PUSH1 0x1 PUSH2 0x15D8 JUMP JUMPDEST POP POP POP JUMP JUMPDEST PUSH1 0x0 PUSH2 0x851 PUSH2 0x1001 DUP3 PUSH1 0xA PUSH2 0x1F33 JUMP JUMPDEST PUSH1 0x2 SLOAD PUSH2 0x100E SWAP2 SWAP1 PUSH2 0x1DAB JUMP JUMPDEST PUSH2 0x1016 PUSH2 0x542 JUMP JUMPDEST PUSH2 0xFD6 SWAP1 PUSH1 0x1 PUSH2 0x1DAB JUMP JUMPDEST PUSH1 0x5 SLOAD PUSH1 0x1 PUSH1 0x1 PUSH1 0xA0 SHL SUB AND CALLER EQ PUSH2 0xC34 JUMPI PUSH1 0x40 MLOAD PUSH4 0x118CDAA7 PUSH1 0xE0 SHL DUP2 MSTORE CALLER PUSH1 0x4 DUP3 ADD MSTORE PUSH1 0x24 ADD PUSH2 0x7DF JUMP JUMPDEST PUSH1 0x1 PUSH1 0x1 PUSH1 0xA0 SHL SUB DUP4 DUP2 AND PUSH1 0x0 SWAP1 DUP2 MSTORE PUSH1 0x1 PUSH1 0x20 SWAP1 DUP2 MSTORE PUSH1 0x40 DUP1 DUP4 KECCAK256 SWAP4 DUP7 AND DUP4 MSTORE SWAP3 SWAP1 MSTORE KECCAK256 SLOAD PUSH1 0x0 NOT DUP2 LT ISZERO PUSH2 0x10B4 JUMPI DUP2 DUP2 LT ISZERO PUSH2 0x10A5 JUMPI DUP3 DUP2 DUP4 PUSH1 0x40 MLOAD PUSH4 0x7DC7A0D9 PUSH1 0xE1 SHL DUP2 MSTORE PUSH1 0x4 ADD PUSH2 0x7DF SWAP4 SWAP3 SWAP2 SWAP1 PUSH2 0x1E2E JUMP JUMPDEST PUSH2 0x10B4 DUP5 DUP5 DUP5 DUP5 SUB PUSH1 0x0 PUSH2 0x15D8 JUMP JUMPDEST POP POP POP POP JUMP JUMPDEST PUSH1 0x1 PUSH1 0x1 PUSH1 0xA0 SHL SUB DUP4 AND PUSH2 0x10E4 JUMPI PUSH1 0x40 MLOAD PUSH4 0x4B637E8F PUSH1 0xE1 SHL DUP2 MSTORE PUSH1 0x0 PUSH1 0x4 DUP3 ADD MSTORE PUSH1 0x24 ADD PUSH2 0x7DF JUMP JUMPDEST PUSH1 0x1 PUSH1 0x1 PUSH1 0xA0 SHL SUB DUP3 AND PUSH2 0x110E JUMPI PUSH1 0x40 MLOAD PUSH4 0xEC442F05 PUSH1 0xE0 SHL DUP2 MSTORE PUSH1 0x0 PUSH1 0x4 DUP3 ADD MSTORE PUSH1 0x24 ADD PUSH2 0x7DF JUMP JUMPDEST PUSH2 0xFEC DUP4 DUP4 DUP4 PUSH2 0x16AD JUMP JUMPDEST PUSH1 0x2 PUSH1 0x6 SLOAD SUB PUSH2 0x113C JUMPI PUSH1 0x40 MLOAD PUSH4 0x3EE5AEB5 PUSH1 0xE0 SHL DUP2 MSTORE PUSH1 0x4 ADD PUSH1 0x40 MLOAD DUP1 SWAP2 SUB SWAP1 REVERT JUMPDEST PUSH1 0x2 PUSH1 0x6 SSTORE JUMP JUMPDEST PUSH1 0x40 DUP1 MLOAD PUSH1 0x1 PUSH1 0x1 PUSH1 0xA0 SHL SUB DUP5 AND PUSH1 0x24 DUP3 ADD MSTORE PUSH1 0x44 DUP1 DUP3 ADD DUP5 SWAP1 MSTORE DUP3 MLOAD DUP1 DUP4 SUB SWAP1 SWAP2 ADD DUP2 MSTORE PUSH1 0x64 SWAP1 SWAP2 ADD SWAP1 SWAP2 MSTORE PUSH1 0x20 DUP2 ADD DUP1 MLOAD PUSH1 0x1 PUSH1 0x1 PUSH1 0xE0 SHL SUB AND PUSH4 0x95EA7B3 PUSH1 0xE0 SHL OR SWAP1 MSTORE PUSH2 0x1194 DUP5 DUP3 PUSH2 0x17C4 JUMP JUMPDEST PUSH2 0x10B4 JUMPI PUSH1 0x40 MLOAD PUSH1 0x1 PUSH1 0x1 PUSH1 0xA0 SHL SUB DUP5 DUP2 AND PUSH1 0x24 DUP4 ADD MSTORE PUSH1 0x0 PUSH1 0x44 DUP4 ADD MSTORE PUSH2 0x11F7 SWAP2 DUP7 SWAP2 DUP3 AND SWAP1 PUSH4 0x95EA7B3 SWAP1 PUSH1 0x64 ADD JUMPDEST PUSH1 0x40 MLOAD PUSH1 0x20 DUP2 DUP4 SUB SUB DUP2 MSTORE SWAP1 PUSH1 0x40 MSTORE SWAP2 POP PUSH1 0xE0 SHL PUSH1 0x20 DUP3 ADD DUP1 MLOAD PUSH1 0x1 PUSH1 0x1 PUSH1 0xE0 SHL SUB DUP4 DUP2 DUP4 AND OR DUP4 MSTORE POP POP POP POP PUSH2 0x1813 JUMP JUMPDEST PUSH2 0x10B4 DUP5 DUP3 PUSH2 0x1813 JUMP JUMPDEST PUSH1 0x9 SLOAD PUSH1 0x1 PUSH1 0xA0 SHL SWAP1 DIV PUSH1 0xFF AND ISZERO PUSH2 0x1255 JUMPI PUSH1 0x40 MLOAD PUSH3 0x461BCD PUSH1 0xE5 SHL DUP2 MSTORE PUSH1 0x20 PUSH1 0x4 DUP3 ADD MSTORE PUSH1 0x17 PUSH1 0x24 DUP3 ADD MSTORE PUSH23 0x165A595B190D11DBDBD915985D5B1D0E881C185D5CD959 PUSH1 0x4A SHL PUSH1 0x44 DUP3 ADD MSTORE PUSH1 0x64 ADD PUSH2 0x7DF JUMP JUMPDEST PUSH2 0x125D PUSH2 0x1119 JUMP JUMPDEST PUSH2 0x1269 DUP5 DUP5 DUP5 DUP5 PUSH2 0x1884 JUMP JUMPDEST PUSH1 0x0 PUSH32 0x0 PUSH1 0x40 MLOAD PUSH4 0x70A08231 PUSH1 0xE0 SHL DUP2 MSTORE ADDRESS PUSH1 0x4 DUP3 ADD MSTORE PUSH1 0x1 PUSH1 0x1 PUSH1 0xA0 SHL SUB SWAP2 SWAP1 SWAP2 AND SWAP1 PUSH4 0x70A08231 SWAP1 PUSH1 0x24 ADD PUSH1 0x20 PUSH1 0x40 MLOAD DUP1 DUP4 SUB DUP2 DUP7 GAS STATICCALL ISZERO DUP1 ISZERO PUSH2 0x12D2 JUMPI RETURNDATASIZE PUSH1 0x0 DUP1 RETURNDATACOPY RETURNDATASIZE PUSH1 0x0 REVERT JUMPDEST POP POP POP POP PUSH1 0x40 MLOAD RETURNDATASIZE PUSH1 0x1F NOT PUSH1 0x1F DUP3 ADD AND DUP3 ADD DUP1 PUSH1 0x40 MSTORE POP DUP2 ADD SWAP1 PUSH2 0x12F6 SWAP2 SWAP1 PUSH2 0x1D7C JUMP JUMPDEST SWAP1 POP DUP1 ISZERO PUSH2 0x1393 JUMPI PUSH1 0x7 SLOAD PUSH2 0x1335 SWAP1 PUSH1 0x1 PUSH1 0x1 PUSH1 0xA0 SHL SUB AND DUP3 PUSH32 0x0 PUSH2 0xB23 JUMP JUMPDEST PUSH1 0x7 SLOAD PUSH1 0x40 MLOAD PUSH3 0x55F9E9 PUSH1 0xE7 SHL DUP2 MSTORE PUSH1 0x4 DUP2 ADD DUP4 SWAP1 MSTORE PUSH1 0x1 PUSH1 0x1 PUSH1 0xA0 SHL SUB SWAP1 SWAP2 AND SWAP1 PUSH4 0x2AFCF480 SWAP1 PUSH1 0x24 ADD PUSH1 0x0 PUSH1 0x40 MLOAD DUP1 DUP4 SUB DUP2 PUSH1 0x0 DUP8 DUP1 EXTCODESIZE ISZERO DUP1 ISZERO PUSH2 0x137A JUMPI PUSH1 0x0 DUP1 REVERT JUMPDEST POP GAS CALL ISZERO DUP1 ISZERO PUSH2 0x138E JUMPI RETURNDATASIZE PUSH1 0x0 DUP1 RETURNDATACOPY RETURNDATASIZE PUSH1 0x0 REVERT JUMPDEST POP POP POP POP JUMPDEST POP PUSH2 0x10B4 PUSH1 0x1 PUSH1 0x6 SSTORE JUMP JUMPDEST PUSH1 0x5 DUP1 SLOAD PUSH1 0x1 PUSH1 0x1 PUSH1 0xA0 SHL SUB DUP4 DUP2 AND PUSH1 0x1 PUSH1 0x1 PUSH1 0xA0 SHL SUB NOT DUP4 AND DUP2 OR SWAP1 SWAP4 SSTORE PUSH1 0x40 MLOAD SWAP2 AND SWAP2 SWAP1 DUP3 SWAP1 PUSH32 0x8BE0079C531659141344CD1FD0A4F28419497F9722A3DAAFE3B4186F6B6457E0 SWAP1 PUSH1 0x0 SWAP1 LOG3 POP POP JUMP JUMPDEST PUSH2 0x13F8 PUSH2 0x1119 JUMP JUMPDEST PUSH1 0x0 PUSH32 0x0 PUSH1 0x40 MLOAD PUSH4 0x70A08231 PUSH1 0xE0 SHL DUP2 MSTORE ADDRESS PUSH1 0x4 DUP3 ADD MSTORE PUSH1 0x1 PUSH1 0x1 PUSH1 0xA0 SHL SUB SWAP2 SWAP1 SWAP2 AND SWAP1 PUSH4 0x70A08231 SWAP1 PUSH1 0x24 ADD PUSH1 0x20 PUSH1 0x40 MLOAD DUP1 DUP4 SUB DUP2 DUP7 GAS STATICCALL ISZERO DUP1 ISZERO PUSH2 0x1461 JUMPI RETURNDATASIZE PUSH1 0x0 DUP1 RETURNDATACOPY RETURNDATASIZE PUSH1 0x0 REVERT JUMPDEST POP POP POP POP PUSH1 0x40 MLOAD RETURNDATASIZE PUSH1 0x1F NOT PUSH1 0x1F DUP3 ADD AND DUP3 ADD DUP1 PUSH1 0x40 MSTORE POP DUP2 ADD SWAP1 PUSH2 0x1485 SWAP2 SWAP1 PUSH2 0x1D7C JUMP JUMPDEST SWAP1 POP DUP1 DUP4 GT ISZERO PUSH2 0x1575 JUMPI PUSH1 0x0 PUSH2 0x149B DUP3 DUP6 PUSH2 0x1F42 JUMP JUMPDEST PUSH1 0x7 SLOAD PUSH1 0x40 MLOAD PUSH4 0x8CA17995 PUSH1 0xE0 SHL DUP2 MSTORE PUSH1 0x4 DUP2 ADD DUP4 SWAP1 MSTORE SWAP2 SWAP3 POP PUSH1 0x0 SWAP2 PUSH1 0x1 PUSH1 0x1 PUSH1 0xA0 SHL SUB SWAP1 SWAP2 AND SWAP1 PUSH4 0x8CA17995 SWAP1 PUSH1 0x24 ADD PUSH1 0x20 PUSH1 0x40 MLOAD DUP1 DUP4 SUB DUP2 PUSH1 0x0 DUP8 GAS CALL ISZERO DUP1 ISZERO PUSH2 0x14EC JUMPI RETURNDATASIZE PUSH1 0x0 DUP1 RETURNDATACOPY RETURNDATASIZE PUSH1 0x0 REVERT JUMPDEST POP POP POP POP PUSH1 0x40 MLOAD RETURNDATASIZE PUSH1 0x1F NOT PUSH1 0x1F DUP3 ADD AND DUP3 ADD DUP1 PUSH1 0x40 MSTORE POP DUP2 ADD SWAP1 PUSH2 0x1510 SWAP2 SWAP1 PUSH2 0x1D7C JUMP JUMPDEST SWAP1 POP DUP2 DUP2 LT ISZERO PUSH2 0x1572 JUMPI PUSH1 0x40 MLOAD PUSH3 0x461BCD PUSH1 0xE5 SHL DUP2 MSTORE PUSH1 0x20 PUSH1 0x4 DUP3 ADD MSTORE PUSH1 0x27 PUSH1 0x24 DUP3 ADD MSTORE PUSH32 0x5969656C6434476F6F645661756C743A20696E73756666696369656E74206C69 PUSH1 0x44 DUP3 ADD MSTORE PUSH7 0x71756964697479 PUSH1 0xC8 SHL PUSH1 0x64 DUP3 ADD MSTORE PUSH1 0x84 ADD PUSH2 0x7DF JUMP JUMPDEST POP POP JUMPDEST PUSH2 0x1582 DUP7 DUP7 DUP7 DUP7 DUP7 PUSH2 0x1908 JUMP JUMPDEST POP PUSH2 0x158D PUSH1 0x1 PUSH1 0x6 SSTORE JUMP JUMPDEST POP POP POP POP POP JUMP JUMPDEST PUSH1 0x0 PUSH2 0x15C3 PUSH2 0x15A2 DUP4 PUSH2 0x19C8 JUMP JUMPDEST DUP1 ISZERO PUSH2 0x15BE JUMPI POP PUSH1 0x0 DUP5 DUP1 PUSH2 0x15B9 JUMPI PUSH2 0x15B9 PUSH2 0x1F55 JUMP JUMPDEST DUP7 DUP9 MULMOD GT JUMPDEST ISZERO ISZERO SWAP1 JUMP JUMPDEST PUSH2 0x15CE DUP7 DUP7 DUP7 PUSH2 0x19F5 JUMP JUMPDEST PUSH2 0xEC0 SWAP2 SWAP1 PUSH2 0x1DAB JUMP JUMPDEST PUSH1 0x1 PUSH1 0x1 PUSH1 0xA0 SHL SUB DUP5 AND PUSH2 0x1602 JUMPI PUSH1 0x40 MLOAD PUSH4 0xE602DF05 PUSH1 0xE0 SHL DUP2 MSTORE PUSH1 0x0 PUSH1 0x4 DUP3 ADD MSTORE PUSH1 0x24 ADD PUSH2 0x7DF JUMP JUMPDEST PUSH1 0x1 PUSH1 0x1 PUSH1 0xA0 SHL SUB DUP4 AND PUSH2 0x162C JUMPI PUSH1 0x40 MLOAD PUSH4 0x4A1406B1 PUSH1 0xE1 SHL DUP2 MSTORE PUSH1 0x0 PUSH1 0x4 DUP3 ADD MSTORE PUSH1 0x24 ADD PUSH2 0x7DF JUMP JUMPDEST PUSH1 0x1 PUSH1 0x1 PUSH1 0xA0 SHL SUB DUP1 DUP6 AND PUSH1 0x0 SWAP1 DUP2 MSTORE PUSH1 0x1 PUSH1 0x20 SWAP1 DUP2 MSTORE PUSH1 0x40 DUP1 DUP4 KECCAK256 SWAP4 DUP8 AND DUP4 MSTORE SWAP3 SWAP1 MSTORE KECCAK256 DUP3 SWAP1 SSTORE DUP1 ISZERO PUSH2 0x10B4 JUMPI DUP3 PUSH1 0x1 PUSH1 0x1 PUSH1 0xA0 SHL SUB AND DUP5 PUSH1 0x1 PUSH1 0x1 PUSH1 0xA0 SHL SUB AND PUSH32 0x8C5BE1E5EBEC7D5BD14F71427D1E84F3DD0314C0F7B2291E5B200AC8C7C3B925 DUP5 PUSH1 0x40 MLOAD PUSH2 0x169F SWAP2 DUP2 MSTORE PUSH1 0x20 ADD SWAP1 JUMP JUMPDEST PUSH1 0x40 MLOAD DUP1 SWAP2 SUB SWAP1 LOG3 POP POP POP POP JUMP JUMPDEST PUSH1 0x1 PUSH1 0x1 PUSH1 0xA0 SHL SUB DUP4 AND PUSH2 0x16D8 JUMPI DUP1 PUSH1 0x2 PUSH1 0x0 DUP3 DUP3 SLOAD PUSH2 0x16CD SWAP2 SWAP1 PUSH2 0x1DAB JUMP JUMPDEST SWAP1 SWAP2 SSTORE POP PUSH2 0x1737 SWAP1 POP JUMP JUMPDEST PUSH1 0x1 PUSH1 0x1 PUSH1 0xA0 SHL SUB DUP4 AND PUSH1 0x0 SWAP1 DUP2 MSTORE PUSH1 0x20 DUP2 SWAP1 MSTORE PUSH1 0x40 SWAP1 KECCAK256 SLOAD DUP2 DUP2 LT ISZERO PUSH2 0x1718 JUMPI DUP4 DUP2 DUP4 PUSH1 0x40 MLOAD PUSH4 0x391434E3 PUSH1 0xE2 SHL DUP2 MSTORE PUSH1 0x4 ADD PUSH2 0x7DF SWAP4 SWAP3 SWAP2 SWAP1 PUSH2 0x1E2E JUMP JUMPDEST PUSH1 0x1 PUSH1 0x1 PUSH1 0xA0 SHL SUB DUP5 AND PUSH1 0x0 SWAP1 DUP2 MSTORE PUSH1 0x20 DUP2 SWAP1 MSTORE PUSH1 0x40 SWAP1 KECCAK256 SWAP1 DUP3 SWAP1 SUB SWAP1 SSTORE JUMPDEST PUSH1 0x1 PUSH1 0x1 PUSH1 0xA0 SHL SUB DUP3 AND PUSH2 0x1753 JUMPI PUSH1 0x2 DUP1 SLOAD DUP3 SWAP1 SUB SWAP1 SSTORE PUSH2 0x1772 JUMP JUMPDEST PUSH1 0x1 PUSH1 0x1 PUSH1 0xA0 SHL SUB DUP3 AND PUSH1 0x0 SWAP1 DUP2 MSTORE PUSH1 0x20 DUP2 SWAP1 MSTORE PUSH1 0x40 SWAP1 KECCAK256 DUP1 SLOAD DUP3 ADD SWAP1 SSTORE JUMPDEST DUP2 PUSH1 0x1 PUSH1 0x1 PUSH1 0xA0 SHL SUB AND DUP4 PUSH1 0x1 PUSH1 0x1 PUSH1 0xA0 SHL SUB AND PUSH32 0xDDF252AD1BE2C89B69C2B068FC378DAA952BA7F163C4A11628F55A4DF523B3EF DUP4 PUSH1 0x40 MLOAD PUSH2 0x17B7 SWAP2 DUP2 MSTORE PUSH1 0x20 ADD SWAP1 JUMP JUMPDEST PUSH1 0x40 MLOAD DUP1 SWAP2 SUB SWAP1 LOG3 POP POP POP JUMP JUMPDEST PUSH1 0x0 DUP1 PUSH1 0x0 DUP1 PUSH1 0x20 PUSH1 0x0 DUP7 MLOAD PUSH1 0x20 DUP9 ADD PUSH1 0x0 DUP11 GAS CALL SWAP3 POP RETURNDATASIZE SWAP2 POP PUSH1 0x0 MLOAD SWAP1 POP DUP3 DUP1 ISZERO PUSH2 0x1809 JUMPI POP DUP2 ISZERO PUSH2 0x17FA JUMPI DUP1 PUSH1 0x1 EQ PUSH2 0x1809 JUMP JUMPDEST PUSH1 0x0 DUP7 PUSH1 0x1 PUSH1 0x1 PUSH1 0xA0 SHL SUB AND EXTCODESIZE GT JUMPDEST SWAP7 SWAP6 POP POP POP POP POP POP JUMP JUMPDEST PUSH1 0x0 DUP1 PUSH1 0x20 PUSH1 0x0 DUP5 MLOAD PUSH1 0x20 DUP7 ADD PUSH1 0x0 DUP9 GAS CALL DUP1 PUSH2 0x1836 JUMPI PUSH1 0x40 MLOAD RETURNDATASIZE PUSH1 0x0 DUP3 RETURNDATACOPY RETURNDATASIZE DUP2 REVERT JUMPDEST POP POP PUSH1 0x0 MLOAD RETURNDATASIZE SWAP2 POP DUP2 ISZERO PUSH2 0x184E JUMPI DUP1 PUSH1 0x1 EQ ISZERO PUSH2 0x185B JUMP JUMPDEST PUSH1 0x1 PUSH1 0x1 PUSH1 0xA0 SHL SUB DUP5 AND EXTCODESIZE ISZERO JUMPDEST ISZERO PUSH2 0x10B4 JUMPI PUSH1 0x40 MLOAD PUSH4 0x5274AFE7 PUSH1 0xE0 SHL DUP2 MSTORE PUSH1 0x1 PUSH1 0x1 PUSH1 0xA0 SHL SUB DUP6 AND PUSH1 0x4 DUP3 ADD MSTORE PUSH1 0x24 ADD PUSH2 0x7DF JUMP JUMPDEST PUSH2 0x18B0 PUSH32 0x0 DUP6 ADDRESS DUP6 PUSH2 0x1AAA JUMP JUMPDEST PUSH2 0x18BA DUP4 DUP3 PUSH2 0x1AE3 JUMP JUMPDEST DUP3 PUSH1 0x1 PUSH1 0x1 PUSH1 0xA0 SHL SUB AND DUP5 PUSH1 0x1 PUSH1 0x1 PUSH1 0xA0 SHL SUB AND PUSH32 0xDCBC1C05240F31FF3AD067EF1EE35CE4997762752E3A095284754544F4C709D7 DUP5 DUP5 PUSH1 0x40 MLOAD PUSH2 0x169F SWAP3 SWAP2 SWAP1 SWAP2 DUP3 MSTORE PUSH1 0x20 DUP3 ADD MSTORE PUSH1 0x40 ADD SWAP1 JUMP JUMPDEST DUP3 PUSH1 0x1 PUSH1 0x1 PUSH1 0xA0 SHL SUB AND DUP6 PUSH1 0x1 PUSH1 0x1 PUSH1 0xA0 SHL SUB AND EQ PUSH2 0x192C JUMPI PUSH2 0x192C DUP4 DUP7 DUP4 PUSH2 0x104E JUMP JUMPDEST PUSH2 0x1936 DUP4 DUP3 PUSH2 0x1B1D JUMP JUMPDEST PUSH2 0x1961 PUSH32 0x0 DUP6 DUP5 PUSH2 0x1B53 JUMP JUMPDEST DUP3 PUSH1 0x1 PUSH1 0x1 PUSH1 0xA0 SHL SUB AND DUP5 PUSH1 0x1 PUSH1 0x1 PUSH1 0xA0 SHL SUB AND DUP7 PUSH1 0x1 PUSH1 0x1 PUSH1 0xA0 SHL SUB AND PUSH32 0xFBDE797D201C681B91056529119E0B02407C7BB96A4A2C75C01FC9667232C8DB DUP6 DUP6 PUSH1 0x40 MLOAD PUSH2 0x19B9 SWAP3 SWAP2 SWAP1 SWAP2 DUP3 MSTORE PUSH1 0x20 DUP3 ADD MSTORE PUSH1 0x40 ADD SWAP1 JUMP JUMPDEST PUSH1 0x40 MLOAD DUP1 SWAP2 SUB SWAP1 LOG4 POP POP POP POP POP JUMP JUMPDEST PUSH1 0x0 PUSH1 0x2 DUP3 PUSH1 0x3 DUP2 GT ISZERO PUSH2 0x19DE JUMPI PUSH2 0x19DE PUSH2 0x1F6B JUMP JUMPDEST PUSH2 0x19E8 SWAP2 SWAP1 PUSH2 0x1F81 JUMP JUMPDEST PUSH1 0xFF AND PUSH1 0x1 EQ SWAP1 POP SWAP2 SWAP1 POP JUMP JUMPDEST PUSH1 0x0 DUP1 PUSH1 0x0 PUSH2 0x1A04 DUP7 DUP7 PUSH2 0x1B84 JUMP JUMPDEST SWAP2 POP SWAP2 POP DUP2 PUSH1 0x0 SUB PUSH2 0x1A29 JUMPI DUP4 DUP2 DUP2 PUSH2 0x1A1F JUMPI PUSH2 0x1A1F PUSH2 0x1F55 JUMP JUMPDEST DIV SWAP3 POP POP POP PUSH2 0x851 JUMP JUMPDEST DUP2 DUP5 GT PUSH2 0x1A40 JUMPI PUSH2 0x1A40 PUSH1 0x3 DUP6 ISZERO MUL PUSH1 0x11 XOR PUSH2 0x1BA2 JUMP JUMPDEST PUSH1 0x0 DUP5 DUP7 DUP9 MULMOD PUSH1 0x0 DUP7 DUP2 SUB DUP8 AND SWAP7 DUP8 SWAP1 DIV SWAP7 PUSH1 0x2 PUSH1 0x3 DUP10 MUL DUP2 XOR DUP1 DUP11 MUL DUP3 SUB MUL DUP1 DUP11 MUL DUP3 SUB MUL DUP1 DUP11 MUL DUP3 SUB MUL DUP1 DUP11 MUL DUP3 SUB MUL DUP1 DUP11 MUL DUP3 SUB MUL DUP1 DUP11 MUL SWAP1 SWAP2 SUB MUL SWAP2 DUP2 SWAP1 SUB DUP2 SWAP1 DIV PUSH1 0x1 ADD DUP6 DUP5 GT SWAP1 SWAP7 SUB SWAP6 SWAP1 SWAP6 MUL SWAP2 SWAP1 SWAP4 SUB SWAP4 SWAP1 SWAP4 DIV SWAP3 SWAP1 SWAP3 OR MUL SWAP2 POP POP SWAP4 SWAP3 POP POP POP JUMP JUMPDEST PUSH1 0x40 MLOAD PUSH1 0x1 PUSH1 0x1 PUSH1 0xA0 SHL SUB DUP5 DUP2 AND PUSH1 0x24 DUP4 ADD MSTORE DUP4 DUP2 AND PUSH1 0x44 DUP4 ADD MSTORE PUSH1 0x64 DUP3 ADD DUP4 SWAP1 MSTORE PUSH2 0x10B4 SWAP2 DUP7 SWAP2 DUP3 AND SWAP1 PUSH4 0x23B872DD SWAP1 PUSH1 0x84 ADD PUSH2 0x11C5 JUMP JUMPDEST PUSH1 0x1 PUSH1 0x1 PUSH1 0xA0 SHL SUB DUP3 AND PUSH2 0x1B0D JUMPI PUSH1 0x40 MLOAD PUSH4 0xEC442F05 PUSH1 0xE0 SHL DUP2 MSTORE PUSH1 0x0 PUSH1 0x4 DUP3 ADD MSTORE PUSH1 0x24 ADD PUSH2 0x7DF JUMP JUMPDEST PUSH2 0x1B19 PUSH1 0x0 DUP4 DUP4 PUSH2 0x16AD JUMP JUMPDEST POP POP JUMP JUMPDEST PUSH1 0x1 PUSH1 0x1 PUSH1 0xA0 SHL SUB DUP3 AND PUSH2 0x1B47 JUMPI PUSH1 0x40 MLOAD PUSH4 0x4B637E8F PUSH1 0xE1 SHL DUP2 MSTORE PUSH1 0x0 PUSH1 0x4 DUP3 ADD MSTORE PUSH1 0x24 ADD PUSH2 0x7DF JUMP JUMPDEST PUSH2 0x1B19 DUP3 PUSH1 0x0 DUP4 PUSH2 0x16AD JUMP JUMPDEST PUSH1 0x40 MLOAD PUSH1 0x1 PUSH1 0x1 PUSH1 0xA0 SHL SUB DUP4 DUP2 AND PUSH1 0x24 DUP4 ADD MSTORE PUSH1 0x44 DUP3 ADD DUP4 SWAP1 MSTORE PUSH2 0xFEC SWAP2 DUP6 SWAP2 DUP3 AND SWAP1 PUSH4 0xA9059CBB SWAP1 PUSH1 0x64 ADD PUSH2 0x11C5 JUMP JUMPDEST PUSH1 0x0 DUP1 PUSH1 0x0 NOT DUP4 DUP6 MULMOD SWAP4 SWAP1 SWAP3 MUL DUP1 DUP5 LT SWAP4 DUP2 SWAP1 SUB SWAP4 SWAP1 SWAP4 SUB SWAP4 SWAP2 POP POP JUMP JUMPDEST PUSH4 0x4E487B71 PUSH1 0x0 MSTORE DUP1 PUSH1 0x20 MSTORE PUSH1 0x24 PUSH1 0x1C REVERT JUMPDEST PUSH1 0x0 PUSH1 0x20 DUP1 DUP4 MSTORE DUP4 MLOAD DUP1 DUP3 DUP6 ADD MSTORE PUSH1 0x0 JUMPDEST DUP2 DUP2 LT ISZERO PUSH2 0x1BE1 JUMPI DUP6 DUP2 ADD DUP4 ADD MLOAD DUP6 DUP3 ADD PUSH1 0x40 ADD MSTORE DUP3 ADD PUSH2 0x1BC5 JUMP JUMPDEST POP PUSH1 0x0 PUSH1 0x40 DUP3 DUP7 ADD ADD MSTORE PUSH1 0x40 PUSH1 0x1F NOT PUSH1 0x1F DUP4 ADD AND DUP6 ADD ADD SWAP3 POP POP POP SWAP3 SWAP2 POP POP JUMP JUMPDEST PUSH1 0x0 PUSH1 0x20 DUP3 DUP5 SUB SLT ISZERO PUSH2 0x1C14 JUMPI PUSH1 0x0 DUP1 REVERT JUMPDEST POP CALLDATALOAD SWAP2 SWAP1 POP JUMP JUMPDEST PUSH1 0x1 PUSH1 0x1 PUSH1 0xA0 SHL SUB DUP2 AND DUP2 EQ PUSH2 0xFA2 JUMPI PUSH1 0x0 DUP1 REVERT JUMPDEST PUSH1 0x0 DUP1 PUSH1 0x40 DUP4 DUP6 SUB SLT ISZERO PUSH2 0x1C43 JUMPI PUSH1 0x0 DUP1 REVERT JUMPDEST DUP3 CALLDATALOAD PUSH2 0x1C4E DUP2 PUSH2 0x1C1B JUMP JUMPDEST SWAP5 PUSH1 0x20 SWAP4 SWAP1 SWAP4 ADD CALLDATALOAD SWAP4 POP POP POP JUMP JUMPDEST PUSH1 0x0 PUSH1 0x20 DUP3 DUP5 SUB SLT ISZERO PUSH2 0x1C6E JUMPI PUSH1 0x0 DUP1 REVERT JUMPDEST DUP2 CALLDATALOAD DUP1 ISZERO ISZERO DUP2 EQ PUSH2 0x851 JUMPI PUSH1 0x0 DUP1 REVERT JUMPDEST PUSH1 0x0 PUSH1 0x20 DUP3 DUP5 SUB SLT ISZERO PUSH2 0x1C90 JUMPI PUSH1 0x0 DUP1 REVERT JUMPDEST DUP2 CALLDATALOAD PUSH2 0x851 DUP2 PUSH2 0x1C1B JUMP JUMPDEST PUSH1 0x0 DUP1 PUSH1 0x0 PUSH1 0x60 DUP5 DUP7 SUB SLT ISZERO PUSH2 0x1CB0 JUMPI PUSH1 0x0 DUP1 REVERT JUMPDEST DUP4 CALLDATALOAD PUSH2 0x1CBB DUP2 PUSH2 0x1C1B JUMP JUMPDEST SWAP3 POP PUSH1 0x20 DUP5 ADD CALLDATALOAD PUSH2 0x1CCB DUP2 PUSH2 0x1C1B JUMP JUMPDEST SWAP3 SWAP6 SWAP3 SWAP5 POP POP POP PUSH1 0x40 SWAP2 SWAP1 SWAP2 ADD CALLDATALOAD SWAP1 JUMP JUMPDEST PUSH1 0x0 DUP1 PUSH1 0x40 DUP4 DUP6 SUB SLT ISZERO PUSH2 0x1CEF JUMPI PUSH1 0x0 DUP1 REVERT JUMPDEST DUP3 CALLDATALOAD SWAP2 POP PUSH1 0x20 DUP4 ADD CALLDATALOAD PUSH2 0x1D01 DUP2 PUSH2 0x1C1B JUMP JUMPDEST DUP1 SWAP2 POP POP SWAP3 POP SWAP3 SWAP1 POP JUMP JUMPDEST PUSH1 0x0 DUP1 PUSH1 0x0 PUSH1 0x60 DUP5 DUP7 SUB SLT ISZERO PUSH2 0x1D21 JUMPI PUSH1 0x0 DUP1 REVERT JUMPDEST DUP4 CALLDATALOAD SWAP3 POP PUSH1 0x20 DUP5 ADD CALLDATALOAD PUSH2 0x1D33 DUP2 PUSH2 0x1C1B JUMP JUMPDEST SWAP2 POP PUSH1 0x40 DUP5 ADD CALLDATALOAD PUSH2 0x1D43 DUP2 PUSH2 0x1C1B JUMP JUMPDEST DUP1 SWAP2 POP POP SWAP3 POP SWAP3 POP SWAP3 JUMP JUMPDEST PUSH1 0x0 DUP1 PUSH1 0x40 DUP4 DUP6 SUB SLT ISZERO PUSH2 0x1D61 JUMPI PUSH1 0x0 DUP1 REVERT JUMPDEST DUP3 CALLDATALOAD PUSH2 0x1D6C DUP2 PUSH2 0x1C1B JUMP JUMPDEST SWAP2 POP PUSH1 0x20 DUP4 ADD CALLDATALOAD PUSH2 0x1D01 DUP2 PUSH2 0x1C1B JUMP JUMPDEST PUSH1 0x0 PUSH1 0x20 DUP3 DUP5 SUB SLT ISZERO PUSH2 0x1D8E JUMPI PUSH1 0x0 DUP1 REVERT JUMPDEST POP MLOAD SWAP2 SWAP1 POP JUMP JUMPDEST PUSH4 0x4E487B71 PUSH1 0xE0 SHL PUSH1 0x0 MSTORE PUSH1 0x11 PUSH1 0x4 MSTORE PUSH1 0x24 PUSH1 0x0 REVERT JUMPDEST DUP1 DUP3 ADD DUP1 DUP3 GT ISZERO PUSH2 0x6E8 JUMPI PUSH2 0x6E8 PUSH2 0x1D95 JUMP JUMPDEST PUSH1 0x1 DUP2 DUP2 SHR SWAP1 DUP3 AND DUP1 PUSH2 0x1DD2 JUMPI PUSH1 0x7F DUP3 AND SWAP2 POP JUMPDEST PUSH1 0x20 DUP3 LT DUP2 SUB PUSH2 0x1DF2 JUMPI PUSH4 0x4E487B71 PUSH1 0xE0 SHL PUSH1 0x0 MSTORE PUSH1 0x22 PUSH1 0x4 MSTORE PUSH1 0x24 PUSH1 0x0 REVERT JUMPDEST POP SWAP2 SWAP1 POP JUMP JUMPDEST PUSH1 0xFF DUP2 DUP2 AND DUP4 DUP3 AND ADD SWAP1 DUP2 GT ISZERO PUSH2 0x6E8 JUMPI PUSH2 0x6E8 PUSH2 0x1D95 JUMP JUMPDEST PUSH1 0x0 PUSH1 0x20 DUP3 DUP5 SUB SLT ISZERO PUSH2 0x1E23 JUMPI PUSH1 0x0 DUP1 REVERT JUMPDEST DUP2 MLOAD PUSH2 0x851 DUP2 PUSH2 0x1C1B JUMP JUMPDEST PUSH1 0x1 PUSH1 0x1 PUSH1 0xA0 SHL SUB SWAP4 SWAP1 SWAP4 AND DUP4 MSTORE PUSH1 0x20 DUP4 ADD SWAP2 SWAP1 SWAP2 MSTORE PUSH1 0x40 DUP3 ADD MSTORE PUSH1 0x60 ADD SWAP1 JUMP JUMPDEST PUSH1 0x1 DUP2 DUP2 JUMPDEST DUP1 DUP6 GT ISZERO PUSH2 0x1E8A JUMPI DUP2 PUSH1 0x0 NOT DIV DUP3 GT ISZERO PUSH2 0x1E70 JUMPI PUSH2 0x1E70 PUSH2 0x1D95 JUMP JUMPDEST DUP1 DUP6 AND ISZERO PUSH2 0x1E7D JUMPI SWAP2 DUP2 MUL SWAP2 JUMPDEST SWAP4 DUP5 SHR SWAP4 SWAP1 DUP1 MUL SWAP1 PUSH2 0x1E54 JUMP JUMPDEST POP SWAP3 POP SWAP3 SWAP1 POP JUMP JUMPDEST PUSH1 0x0 DUP3 PUSH2 0x1EA1 JUMPI POP PUSH1 0x1 PUSH2 0x6E8 JUMP JUMPDEST DUP2 PUSH2 0x1EAE JUMPI POP PUSH1 0x0 PUSH2 0x6E8 JUMP JUMPDEST DUP2 PUSH1 0x1 DUP2 EQ PUSH2 0x1EC4 JUMPI PUSH1 0x2 DUP2 EQ PUSH2 0x1ECE JUMPI PUSH2 0x1EEA JUMP JUMPDEST PUSH1 0x1 SWAP2 POP POP PUSH2 0x6E8 JUMP JUMPDEST PUSH1 0xFF DUP5 GT ISZERO PUSH2 0x1EDF JUMPI PUSH2 0x1EDF PUSH2 0x1D95 JUMP JUMPDEST POP POP PUSH1 0x1 DUP3 SHL PUSH2 0x6E8 JUMP JUMPDEST POP PUSH1 0x20 DUP4 LT PUSH2 0x133 DUP4 LT AND PUSH1 0x4E DUP5 LT PUSH1 0xB DUP5 LT AND OR ISZERO PUSH2 0x1F0D JUMPI POP DUP2 DUP2 EXP PUSH2 0x6E8 JUMP JUMPDEST PUSH2 0x1F17 DUP4 DUP4 PUSH2 0x1E4F JUMP JUMPDEST DUP1 PUSH1 0x0 NOT DIV DUP3 GT ISZERO PUSH2 0x1F2B JUMPI PUSH2 0x1F2B PUSH2 0x1D95 JUMP JUMPDEST MUL SWAP4 SWAP3 POP POP POP JUMP JUMPDEST PUSH1 0x0 PUSH2 0x851 PUSH1 0xFF DUP5 AND DUP4 PUSH2 0x1E92 JUMP JUMPDEST DUP2 DUP2 SUB DUP2 DUP2 GT ISZERO PUSH2 0x6E8 JUMPI PUSH2 0x6E8 PUSH2 0x1D95 JUMP JUMPDEST PUSH4 0x4E487B71 PUSH1 0xE0 SHL PUSH1 0x0 MSTORE PUSH1 0x12 PUSH1 0x4 MSTORE PUSH1 0x24 PUSH1 0x0 REVERT JUMPDEST PUSH4 0x4E487B71 PUSH1 0xE0 SHL PUSH1 0x0 MSTORE PUSH1 0x21 PUSH1 0x4 MSTORE PUSH1 0x24 PUSH1 0x0 REVERT JUMPDEST PUSH1 0x0 PUSH1 0xFF DUP4 AND DUP1 PUSH2 0x1FA2 JUMPI PUSH4 0x4E487B71 PUSH1 0xE0 SHL PUSH1 0x0 MSTORE PUSH1 0x12 PUSH1 0x4 MSTORE PUSH1 0x24 PUSH1 0x0 REVERT JUMPDEST DUP1 PUSH1 0xFF DUP5 AND MOD SWAP2 POP POP SWAP3 SWAP2 POP POP JUMP INVALID LOG2 PUSH5 0x6970667358 0x22 SLT KECCAK256 SWAP6 0x28 LOG1 0xB8 PUSH27 0x8BB9CA0E82B34F7D114C94B47BE829382038FDD580A325C911E6C2 PUSH5 0x736F6C6343 STOP ADDMOD EQ STOP CALLER "},"methodIdentifiers":{"allowance(address,address)":"dd62ed3e","approve(address,uint256)":"095ea7b3","asset()":"38d52e0f","balanceOf(address)":"70a08231","beneficiary()":"38af3eed","convertToAssets(uint256)":"07a2d13a","convertToShares(uint256)":"c6e6f592","decimals()":"313ce567","deposit(uint256,address)":"6e553f65","donationRouter()":"88f973f0","emergencyDivest(uint256)":"6295042d","harvest()":"4641257d","maxDeposit(address)":"402d267d","maxMint(address)":"c63d75b6","maxRedeem(address)":"d905777e","maxWithdraw(address)":"ce96cb77","mint(uint256,address)":"94bf804d","name()":"06fdde03","owner()":"8da5cb5b","paused()":"5c975abb","previewDeposit(uint256)":"ef8b30f7","previewMint(uint256)":"b3d7f6b9","previewRedeem(uint256)":"4cdad506","previewWithdraw(uint256)":"0a28a477","redeem(uint256,address,address)":"ba087652","renounceOwnership()":"715018a6","setBeneficiary(address)":"1c31f710","setDonationRouter(address)":"a6cc1cec","setPaused(bool)":"16c38b3c","setStrategy(address)":"33a100ca","strategy()":"a8c62e76","symbol()":"95d89b41","totalAssets()":"01e1d114","totalDonated()":"00b37044","totalSupply()":"18160ddd","transfer(address,uint256)":"a9059cbb","transferFrom(address,address,uint256)":"23b872dd","transferOwnership(address)":"f2fde38b","withdraw(uint256,address,address)":"b460af94"}}}}}