{
  "_format": "hh-sol-artifact-1",
  "contractName": "MockStrategy",
  "sourceName": "contracts/strategies/MockStrategy.sol",
  "abi": [
    {
      "inputs": [
        {
          "internalType": "address",
          "name": "_asset",
          "type": "address"
        }
      ],
      "stateMutability": "nonpayable",
      "type": "constructor"
    },
    {
      "inputs": [
        {
          "internalType": "address",
          "name": "owner",
          "type": "address"
        }
      ],
      "name": "OwnableInvalidOwner",
      "type": "error"
    },
    {
      "inputs": [
        {
          "internalType": "address",
          "name": "account",
          "type": "address"
        }
      ],
      "name": "OwnableUnauthorizedAccount",
      "type": "error"
    },
    {
      "inputs": [
        {
          "internalType": "address",
          "name": "token",
          "type": "address"
        }
      ],
      "name": "SafeERC20FailedOperation",
      "type": "error"
    },
    {
      "anonymous": false,
      "inputs": [
        {
          "indexed": false,
          "internalType": "uint256",
          "name": "amount",
          "type": "uint256"
        }
      ],
      "name": "Divested",
      "type": "event"
    },
    {
      "anonymous": false,
      "inputs": [
        {
          "indexed": false,
          "internalType": "uint256",
          "name": "yieldAmount",
          "type": "uint256"
        }
      ],
      "name": "Harvested",
      "type": "event"
    },
    {
      "anonymous": false,
      "inputs": [
        {
          "indexed": false,
          "internalType": "uint256",
          "name": "amount",
          "type": "uint256"
        }
      ],
      "name": "Invested",
      "type": "event"
    },
    {
      "anonymous": false,
      "inputs": [
        {
          "indexed": true,
          "internalType": "address",
          "name": "previousOwner",
          "type": "address"
        },
        {
          "indexed": true,
          "internalType": "address",
          "name": "newOwner",
          "type": "address"
        }
      ],
      "name": "OwnershipTransferred",
      "type": "event"
    },
    {
      "anonymous": false,
      "inputs": [
        {
          "indexed": false,
          "internalType": "uint256",
          "name": "newYield",
          "type": "uint256"
        }
      ],
      "name": "YieldSet",
      "type": "event"
    },
    {
      "inputs": [],
      "name": "asset",
      "outputs": [
        {
          "internalType": "address",
          "name": "",
          "type": "address"
        }
      ],
      "stateMutability": "view",
      "type": "function"
    },
    {
      "inputs": [
        {
          "internalType": "uint256",
          "name": "amount",
          "type": "uint256"
        }
      ],
      "name": "divest",
      "outputs": [
        {
          "internalType": "uint256",
          "name": "",
          "type": "uint256"
        }
      ],
      "stateMutability": "nonpayable",
      "type": "function"
    },
    {
      "inputs": [],
      "name": "harvest",
      "outputs": [
        {
          "internalType": "uint256",
          "name": "",
          "type": "uint256"
        }
      ],
      "stateMutability": "nonpayable",
      "type": "function"
    },
    {
      "inputs": [
        {
          "internalType": "uint256",
          "name": "amount",
          "type": "uint256"
        }
      ],
      "name": "invest",
      "outputs": [],
      "stateMutability": "nonpayable",
      "type": "function"
    },
    {
      "inputs": [],
      "name": "owner",
      "outputs": [
        {
          "internalType": "address",
          "name": "",
          "type": "address"
        }
      ],
      "stateMutability": "view",
      "type": "function"
    },
    {
      "inputs": [],
      "name": "principal",
      "outputs": [
        {
          "internalType": "uint256",
          "name": "",
          "type": "uint256"
        }
      ],
      "stateMutability": "view",
      "type": "function"
    },
    {
      "inputs": [],
      "name": "renounceOwnership",
      "outputs": [],
      "stateMutability": "nonpayable",
      "type": "function"
    },
    {
      "inputs": [
        {
          "internalType": "uint256",
          "name": "_yield",
          "type": "uint256"
        }
      ],
      "name": "setSimulatedYield",
      "outputs": [],
      "stateMutability": "nonpayable",
      "type": "function"
    },
    {
      "inputs": [],
      "name": "simulatedYield",
      "outputs": [
        {
          "internalType": "uint256",
          "name": "",
          "type": "uint256"
        }
      ],
      "stateMutability": "view",
      "type": "function"
    },
    {
      "inputs": [],
      "name": "totalAssets",
      "outputs": [
        {
          "internalType": "uint256",
          "name": "",
          "type": "uint256"
        }
      ],
      "stateMutability": "view",
      "type": "function"
    },
    {
      "inputs": [
        {
          "internalType": "address",
          "name": "newOwner",
          "type": "address"
        }
      ],
      "name": "transferOwnership",
      "outputs": [],
      "stateMutability": "nonpayable",
      "type": "function"
    }
  ],
  "bytecode": "0x60a060405234801561001057600080fd5b5060405161088638038061088683398101604081905261002f91610117565b338061005657604051631e4fbdf760e01b8152600060048201526024015b60405180910390fd5b61005f816100c7565b506001600160a01b0381166100b65760405162461bcd60e51b815260206004820181905260248201527f4d6f636b53747261746567793a207a65726f2061737365742061646472657373604482015260640161004d565b6001600160a01b0316608052610147565b600080546001600160a01b038381166001600160a01b0319831681178455604051919092169283917f8be0079c531659141344cd1fd0a4f28419497f9722a3daafe3b4186f6b6457e09190a35050565b60006020828403121561012957600080fd5b81516001600160a01b038116811461014057600080fd5b9392505050565b6080516107106101766000396000818160ff01528181610242015281816102d6015261042201526107106000f3fe608060405234801561001057600080fd5b50600436106100a95760003560e01c80634641257d116100715780634641257d14610139578063715018a6146101415780638ca17995146101495780638da5cb5b1461015c578063ba5d30781461016d578063f2fde38b1461017657600080fd5b806301e1d114146100ae5780631a252135146100c9578063297c7d81146100de5780632afcf480146100e757806338d52e0f146100fa575b600080fd5b6100b6610189565b6040519081526020015b60405180910390f35b6100dc6100d736600461064f565b6101a0565b005b6100b660025481565b6100dc6100f536600461064f565b6101dc565b6101217f000000000000000000000000000000000000000000000000000000000000000081565b6040516001600160a01b0390911681526020016100c0565b6100b66102b1565b6100dc610335565b6100b661015736600461064f565b610349565b6000546001600160a01b0316610121565b6100b660015481565b6100dc610184366004610668565b610480565b600060025460015461019b91906106ae565b905090565b60028190556040518181527fdcc9cb0c18f471e3edeee10cda1611db1bc00d867889b9be1237d2fff5a29c7c906020015b60405180910390a150565b6101e46104be565b600081116102355760405162461bcd60e51b8152602060048201526019602482015278135bd8dad4dd1c985d1959de4e881e995c9bc8185b5bdd5b9d603a1b60448201526064015b60405180910390fd5b61026a6001600160a01b037f0000000000000000000000000000000000000000000000000000000000000000163330846104eb565b806001600082825461027c91906106ae565b90915550506040518181527fac9f7997c30b6a3cc9c74953898b5de154359339c7ec0d6d70ceb98e55db1a4b906020016101d1565b60006102bb6104be565b600254801561019b5760006002556102fd6001600160a01b037f0000000000000000000000000000000000000000000000000000000000000000163383610558565b6040518181527f8e55ccfc9778ff8eba1646d765cf1982537ce0f9257054a17b48aad7452501839060200160405180910390a1905090565b61033d6104be565b610347600061058e565b565b60006103536104be565b6000821161039f5760405162461bcd60e51b8152602060048201526019602482015278135bd8dad4dd1c985d1959de4e881e995c9bc8185b5bdd5b9d603a1b604482015260640161022c565b6001548211156103fd5760405162461bcd60e51b8152602060048201526024808201527f4d6f636b53747261746567793a20696e73756666696369656e74207072696e636044820152631a5c185b60e21b606482015260840161022c565b816001600082825461040f91906106c7565b9091555061044990506001600160a01b037f0000000000000000000000000000000000000000000000000000000000000000163384610558565b6040518281527f0dbc40ccd4fca1b5bf46f23e99aaefe371e661e9ca0c45dc1b79e5e321d3b99d9060200160405180910390a15090565b6104886104be565b6001600160a01b0381166104b257604051631e4fbdf760e01b81526000600482015260240161022c565b6104bb8161058e565b50565b6000546001600160a01b031633146103475760405163118cdaa760e01b815233600482015260240161022c565b6040516001600160a01b0384811660248301528381166044830152606482018390526105529186918216906323b872dd906084015b604051602081830303815290604052915060e01b6020820180516001600160e01b0383818316178352505050506105de565b50505050565b6040516001600160a01b0383811660248301526044820183905261058991859182169063a9059cbb90606401610520565b505050565b600080546001600160a01b038381166001600160a01b0319831681178455604051919092169283917f8be0079c531659141344cd1fd0a4f28419497f9722a3daafe3b4186f6b6457e09190a35050565b600080602060008451602086016000885af180610601576040513d6000823e3d81fd5b50506000513d91508115610619578060011415610626565b6001600160a01b0384163b155b1561055257604051635274afe760e01b81526001600160a01b038516600482015260240161022c565b60006020828403121561066157600080fd5b5035919050565b60006020828403121561067a57600080fd5b81356001600160a01b038116811461069157600080fd5b9392505050565b634e487b7160e01b600052601160045260246000fd5b808201808211156106c1576106c1610698565b92915050565b818103818111156106c1576106c161069856fea264697066735822122095cede46d6647714ac523bae852adbd23d02c985e8290b823a17a712831a45b964736f6c63430008140033",
  "linkReferences": {},
  "deployedLinkReferences": {}
}